{
  "_format": "hh-sol-artifact-1",
  "contractName": "Escrow",
  "sourceName": "src/backend/contracts/Escrow.sol",
  "abi": [
    {
      "inputs": [
        {
          "internalType": "address",
          "name": "_payee",
          "type": "address"
        },
        {
          "internalType": "uint256",
          "name": "_totalStages",
          "type": "uint256"
        }
      ],
      "stateMutability": "nonpayable",
      "type": "constructor"
    },
    {
      "anonymous": false,
      "inputs": [
        {
          "indexed": true,
          "internalType": "address",
          "name": "previousOwner",
          "type": "address"
        },
        {
          "indexed": true,
          "internalType": "address",
          "name": "newOwner",
          "type": "address"
        }
      ],
      "name": "OwnershipTransferred",
      "type": "event"
    },
    {
      "inputs": [],
      "name": "USDC",
      "outputs": [
        {
          "internalType": "contract IERC20",
          "name": "",
          "type": "address"
        }
      ],
      "stateMutability": "view",
      "type": "function"
    },
    {
      "inputs": [],
      "name": "cToken",
      "outputs": [
        {
          "internalType": "contract cERC20",
          "name": "",
          "type": "address"
        }
      ],
      "stateMutability": "view",
      "type": "function"
    },
    {
      "inputs": [],
      "name": "cUSDCRemaining",
      "outputs": [
        {
          "internalType": "uint256",
          "name": "",
          "type": "uint256"
        }
      ],
      "stateMutability": "view",
      "type": "function"
    },
    {
      "inputs": [],
      "name": "currentStage",
      "outputs": [
        {
          "internalType": "uint256",
          "name": "",
          "type": "uint256"
        }
      ],
      "stateMutability": "view",
      "type": "function"
    },
    {
      "inputs": [],
      "name": "fundsRemaining",
      "outputs": [
        {
          "internalType": "uint256",
          "name": "",
          "type": "uint256"
        }
      ],
      "stateMutability": "view",
      "type": "function"
    },
    {
      "inputs": [
        {
          "internalType": "uint256",
          "name": "_stage",
          "type": "uint256"
        }
      ],
      "name": "getHolderRewards",
      "outputs": [
        {
          "internalType": "uint256",
          "name": "",
          "type": "uint256"
        }
      ],
      "stateMutability": "view",
      "type": "function"
    },
    {
      "inputs": [],
      "name": "govToken",
      "outputs": [
        {
          "internalType": "address",
          "name": "",
          "type": "address"
        }
      ],
      "stateMutability": "view",
      "type": "function"
    },
    {
      "inputs": [],
      "name": "owner",
      "outputs": [
        {
          "internalType": "address",
          "name": "",
          "type": "address"
        }
      ],
      "stateMutability": "view",
      "type": "function"
    },
    {
      "inputs": [],
      "name": "payee",
      "outputs": [
        {
          "internalType": "address",
          "name": "",
          "type": "address"
        }
      ],
      "stateMutability": "view",
      "type": "function"
    },
    {
      "inputs": [
        {
          "internalType": "uint256",
          "name": "_stage",
          "type": "uint256"
        }
      ],
      "name": "releaseFunds",
      "outputs": [],
      "stateMutability": "nonpayable",
      "type": "function"
    },
    {
      "inputs": [],
      "name": "renounceOwnership",
      "outputs": [],
      "stateMutability": "nonpayable",
      "type": "function"
    },
    {
      "inputs": [
        {
          "internalType": "uint256",
          "name": "_numTokensToSupply",
          "type": "uint256"
        }
      ],
      "name": "supplyErc20ToCompound",
      "outputs": [
        {
          "internalType": "uint256",
          "name": "",
          "type": "uint256"
        }
      ],
      "stateMutability": "nonpayable",
      "type": "function"
    },
    {
      "inputs": [],
      "name": "totalFunds",
      "outputs": [
        {
          "internalType": "uint256",
          "name": "",
          "type": "uint256"
        }
      ],
      "stateMutability": "view",
      "type": "function"
    },
    {
      "inputs": [],
      "name": "totalStages",
      "outputs": [
        {
          "internalType": "uint256",
          "name": "",
          "type": "uint256"
        }
      ],
      "stateMutability": "view",
      "type": "function"
    },
    {
      "inputs": [],
      "name": "totalcUSDC",
      "outputs": [
        {
          "internalType": "uint256",
          "name": "",
          "type": "uint256"
        }
      ],
      "stateMutability": "view",
      "type": "function"
    },
    {
      "inputs": [
        {
          "internalType": "address",
          "name": "newOwner",
          "type": "address"
        }
      ],
      "name": "transferOwnership",
      "outputs": [],
      "stateMutability": "nonpayable",
      "type": "function"
    }
  ],
  "bytecode": "0x60806040526001600255600a80546001600160a01b031990811673a0b86991c6218b36c1d19d4a2e9eb0ce3606eb4817909155600b80549091167339aa39c021dfbae8fac545936693ac917d5e756317905534801561005d57600080fd5b50604051610c74380380610c7483398101604081905261007c91610122565b610085336100d2565b600a54600c80546001600160a01b03199081166001600160a01b0393841617909155600b54600d80548316918416919091179055600180549490921693169290921790915560035561015c565b600080546001600160a01b038381166001600160a01b0319831681178455604051919092169283917f8be0079c531659141344cd1fd0a4f28419497f9722a3daafe3b4186f6b6457e09190a35050565b6000806040838503121561013557600080fd5b82516001600160a01b038116811461014c57600080fd5b6020939093015192949293505050565b610b098061016b6000396000f3fe608060405234801561001057600080fd5b50600436106101005760003560e01c80638da5cb5b11610097578063b36b9fcf11610066578063b36b9fcf146101ee578063e7f4523114610201578063f2fde38b1461020a578063f86a35291461021d57600080fd5b80638da5cb5b146101a1578063968ed600146101b2578063a0c4561e146101bb578063ae90b213146101db57600080fd5b80635bf5d54c116100d35780635bf5d54c1461016a57806369e527da14610173578063715018a61461018657806389a302711461018e57600080fd5b806305268cff14610105578063158af3c4146101355780634a5ff24d1461014c5780634d68282f14610155575b600080fd5b600954610118906001600160a01b031681565b6040516001600160a01b0390911681526020015b60405180910390f35b61013e60075481565b60405190815260200161012c565b61013e60065481565b6101686101633660046109ae565b610226565b005b61013e60025481565b600d54610118906001600160a01b031681565b6101686104b9565b600c54610118906001600160a01b031681565b6000546001600160a01b0316610118565b61013e60055481565b61013e6101c93660046109ae565b60009081526004602052604090205490565b600154610118906001600160a01b031681565b61013e6101fc3660046109ae565b6104cd565b61013e60085481565b6101686102183660046109c7565b6107c1565b61013e60035481565b61022e610851565b6002805490600061023e83610a0d565b919050555060006003546007546102559190610a28565b90506000600d60009054906101000a90046001600160a01b03166001600160a01b031663bd6d894d6040518163ffffffff1660e01b8152600401602060405180830381600087803b1580156102a957600080fd5b505af11580156102bd573d6000803e3d6000fd5b505050506040513d601f19601f820116820180604052508101906102e19190610a4a565b90506000670de0b6b3a76400006102f88385610a63565b6103029190610a28565b905061030d836108ab565b5060006003546005546103209190610a28565b9050600061032e8284610a82565b9050806004600088815260200190815260200160002060008282546103539190610a99565b92505081905550816006600082825461036c9190610a82565b9250508190555084600860008282546103859190610a82565b9091555050600c5460015460405163a9059cbb60e01b81526001600160a01b0391821660048201526024810185905291169063a9059cbb90604401602060405180830381600087803b1580156103da57600080fd5b505af11580156103ee573d6000803e3d6000fd5b505050506040513d601f19601f820116820180604052508101906104129190610ab1565b50600c5460095460008881526004602081905260409182902054915163a9059cbb60e01b81526001600160a01b0393841691810191909152602481019190915291169063a9059cbb90604401602060405180830381600087803b15801561047857600080fd5b505af115801561048c573d6000803e3d6000fd5b505050506040513d601f19601f820116820180604052508101906104b09190610ab1565b50505050505050565b6104c1610851565b6104cb6000610951565b565b6009546000906001600160a01b0316610500576009805473ffffffffffffffffffffffffffffffffffffffff1916331790555b6009546001600160a01b0316331461055f5760405162461bcd60e51b815260206004820152601c60248201527f596f752063616e27742063616c6c20546869732066756e6374696f6e0000000060448201526064015b60405180910390fd5b81600560008282546105719190610a99565b92505081905550816006600082825461058a9190610a99565b9091555050600c54600b546040517f095ea7b30000000000000000000000000000000000000000000000000000000081526001600160a01b0391821660048201526024810185905291169063095ea7b390604401602060405180830381600087803b1580156105f857600080fd5b505af115801561060c573d6000803e3d6000fd5b505050506040513d601f19601f820116820180604052508101906106309190610ab1565b50600d54604080517fbd6d894d00000000000000000000000000000000000000000000000000000000815290516000926001600160a01b03169163bd6d894d91600480830192602092919082900301818787803b15801561069057600080fd5b505af11580156106a4573d6000803e3d6000fd5b505050506040513d601f19601f820116820180604052508101906106c89190610a4a565b90506000816106df85670de0b6b3a7640000610a63565b6106e99190610a28565b600d546040517fa0712d68000000000000000000000000000000000000000000000000000000008152600481018790529192506000916001600160a01b039091169063a0712d6890602401602060405180830381600087803b15801561074e57600080fd5b505af1158015610762573d6000803e3d6000fd5b505050506040513d601f19601f820116820180604052508101906107869190610a4a565b9050816007600082825461079a9190610a99565b9250508190555081600860008282546107b39190610a99565b909155509095945050505050565b6107c9610851565b6001600160a01b0381166108455760405162461bcd60e51b815260206004820152602660248201527f4f776e61626c653a206e6577206f776e657220697320746865207a65726f206160448201527f64647265737300000000000000000000000000000000000000000000000000006064820152608401610556565b61084e81610951565b50565b6000546001600160a01b031633146104cb5760405162461bcd60e51b815260206004820181905260248201527f4f776e61626c653a2063616c6c6572206973206e6f7420746865206f776e65726044820152606401610556565b600d546040517fdb006a750000000000000000000000000000000000000000000000000000000081526004810183905260009182916001600160a01b039091169063db006a7590602401602060405180830381600087803b15801561090f57600080fd5b505af1158015610923573d6000803e3d6000fd5b505050506040513d601f19601f820116820180604052508101906109479190610a4a565b5060019392505050565b600080546001600160a01b0383811673ffffffffffffffffffffffffffffffffffffffff19831681178455604051919092169283917f8be0079c531659141344cd1fd0a4f28419497f9722a3daafe3b4186f6b6457e09190a35050565b6000602082840312156109c057600080fd5b5035919050565b6000602082840312156109d957600080fd5b81356001600160a01b03811681146109f057600080fd5b9392505050565b634e487b7160e01b600052601160045260246000fd5b6000600019821415610a2157610a216109f7565b5060010190565b600082610a4557634e487b7160e01b600052601260045260246000fd5b500490565b600060208284031215610a5c57600080fd5b5051919050565b6000816000190483118215151615610a7d57610a7d6109f7565b500290565b600082821015610a9457610a946109f7565b500390565b60008219821115610aac57610aac6109f7565b500190565b600060208284031215610ac357600080fd5b815180151581146109f057600080fdfea2646970667358221220d85b5c297e8c5aa62a6971cafa82ef40d2d00b49f92cd4cc3cb5b70d1d6d593964736f6c63430008090033",
  "linkReferences": {},
  "deployedLinkReferences": {}
}