{
  "_format": "hh-sol-artifact-1",
  "contractName": "GovernanceToken",
  "sourceName": "src/backend/contracts/GovernanceToken.sol",
  "abi": [
    {
      "inputs": [
        {
          "internalType": "address",
          "name": "_escrow",
          "type": "address"
        }
      ],
      "stateMutability": "nonpayable",
      "type": "constructor"
    },
    {
      "anonymous": false,
      "inputs": [
        {
          "indexed": true,
          "internalType": "address",
          "name": "owner",
          "type": "address"
        },
        {
          "indexed": true,
          "internalType": "address",
          "name": "spender",
          "type": "address"
        },
        {
          "indexed": false,
          "internalType": "uint256",
          "name": "value",
          "type": "uint256"
        }
      ],
      "name": "Approval",
      "type": "event"
    },
    {
      "anonymous": false,
      "inputs": [
        {
          "indexed": true,
          "internalType": "address",
          "name": "delegator",
          "type": "address"
        },
        {
          "indexed": true,
          "internalType": "address",
          "name": "fromDelegate",
          "type": "address"
        },
        {
          "indexed": true,
          "internalType": "address",
          "name": "toDelegate",
          "type": "address"
        }
      ],
      "name": "DelegateChanged",
      "type": "event"
    },
    {
      "anonymous": false,
      "inputs": [
        {
          "indexed": true,
          "internalType": "address",
          "name": "delegate",
          "type": "address"
        },
        {
          "indexed": false,
          "internalType": "uint256",
          "name": "previousBalance",
          "type": "uint256"
        },
        {
          "indexed": false,
          "internalType": "uint256",
          "name": "newBalance",
          "type": "uint256"
        }
      ],
      "name": "DelegateVotesChanged",
      "type": "event"
    },
    {
      "anonymous": false,
      "inputs": [
        {
          "indexed": true,
          "internalType": "address",
          "name": "from",
          "type": "address"
        },
        {
          "indexed": true,
          "internalType": "address",
          "name": "to",
          "type": "address"
        },
        {
          "indexed": false,
          "internalType": "uint256",
          "name": "value",
          "type": "uint256"
        }
      ],
      "name": "Transfer",
      "type": "event"
    },
    {
      "inputs": [],
      "name": "DOMAIN_SEPARATOR",
      "outputs": [
        {
          "internalType": "bytes32",
          "name": "",
          "type": "bytes32"
        }
      ],
      "stateMutability": "view",
      "type": "function"
    },
    {
      "inputs": [],
      "name": "USDC",
      "outputs": [
        {
          "internalType": "contract IERC20",
          "name": "",
          "type": "address"
        }
      ],
      "stateMutability": "view",
      "type": "function"
    },
    {
      "inputs": [
        {
          "internalType": "address",
          "name": "owner",
          "type": "address"
        },
        {
          "internalType": "address",
          "name": "spender",
          "type": "address"
        }
      ],
      "name": "allowance",
      "outputs": [
        {
          "internalType": "uint256",
          "name": "",
          "type": "uint256"
        }
      ],
      "stateMutability": "view",
      "type": "function"
    },
    {
      "inputs": [
        {
          "internalType": "address",
          "name": "spender",
          "type": "address"
        },
        {
          "internalType": "uint256",
          "name": "amount",
          "type": "uint256"
        }
      ],
      "name": "approve",
      "outputs": [
        {
          "internalType": "bool",
          "name": "",
          "type": "bool"
        }
      ],
      "stateMutability": "nonpayable",
      "type": "function"
    },
    {
      "inputs": [
        {
          "internalType": "address",
          "name": "account",
          "type": "address"
        }
      ],
      "name": "balanceOf",
      "outputs": [
        {
          "internalType": "uint256",
          "name": "",
          "type": "uint256"
        }
      ],
      "stateMutability": "view",
      "type": "function"
    },
    {
      "inputs": [
        {
          "internalType": "address",
          "name": "account",
          "type": "address"
        },
        {
          "internalType": "uint32",
          "name": "pos",
          "type": "uint32"
        }
      ],
      "name": "checkpoints",
      "outputs": [
        {
          "components": [
            {
              "internalType": "uint32",
              "name": "fromBlock",
              "type": "uint32"
            },
            {
              "internalType": "uint224",
              "name": "votes",
              "type": "uint224"
            }
          ],
          "internalType": "struct ERC20Votes.Checkpoint",
          "name": "",
          "type": "tuple"
        }
      ],
      "stateMutability": "view",
      "type": "function"
    },
    {
      "inputs": [
        {
          "internalType": "uint256",
          "name": "_stage",
          "type": "uint256"
        }
      ],
      "name": "claimInterest",
      "outputs": [],
      "stateMutability": "nonpayable",
      "type": "function"
    },
    {
      "inputs": [],
      "name": "decimals",
      "outputs": [
        {
          "internalType": "uint8",
          "name": "",
          "type": "uint8"
        }
      ],
      "stateMutability": "view",
      "type": "function"
    },
    {
      "inputs": [
        {
          "internalType": "address",
          "name": "spender",
          "type": "address"
        },
        {
          "internalType": "uint256",
          "name": "subtractedValue",
          "type": "uint256"
        }
      ],
      "name": "decreaseAllowance",
      "outputs": [
        {
          "internalType": "bool",
          "name": "",
          "type": "bool"
        }
      ],
      "stateMutability": "nonpayable",
      "type": "function"
    },
    {
      "inputs": [
        {
          "internalType": "address",
          "name": "delegatee",
          "type": "address"
        }
      ],
      "name": "delegate",
      "outputs": [],
      "stateMutability": "nonpayable",
      "type": "function"
    },
    {
      "inputs": [
        {
          "internalType": "address",
          "name": "delegatee",
          "type": "address"
        },
        {
          "internalType": "uint256",
          "name": "nonce",
          "type": "uint256"
        },
        {
          "internalType": "uint256",
          "name": "expiry",
          "type": "uint256"
        },
        {
          "internalType": "uint8",
          "name": "v",
          "type": "uint8"
        },
        {
          "internalType": "bytes32",
          "name": "r",
          "type": "bytes32"
        },
        {
          "internalType": "bytes32",
          "name": "s",
          "type": "bytes32"
        }
      ],
      "name": "delegateBySig",
      "outputs": [],
      "stateMutability": "nonpayable",
      "type": "function"
    },
    {
      "inputs": [
        {
          "internalType": "address",
          "name": "account",
          "type": "address"
        }
      ],
      "name": "delegates",
      "outputs": [
        {
          "internalType": "address",
          "name": "",
          "type": "address"
        }
      ],
      "stateMutability": "view",
      "type": "function"
    },
    {
      "inputs": [],
      "name": "escrow",
      "outputs": [
        {
          "internalType": "address",
          "name": "",
          "type": "address"
        }
      ],
      "stateMutability": "view",
      "type": "function"
    },
    {
      "inputs": [],
      "name": "escrowContract",
      "outputs": [
        {
          "internalType": "contract EscrowContract",
          "name": "",
          "type": "address"
        }
      ],
      "stateMutability": "view",
      "type": "function"
    },
    {
      "inputs": [
        {
          "internalType": "uint256",
          "name": "blockNumber",
          "type": "uint256"
        }
      ],
      "name": "getPastTotalSupply",
      "outputs": [
        {
          "internalType": "uint256",
          "name": "",
          "type": "uint256"
        }
      ],
      "stateMutability": "view",
      "type": "function"
    },
    {
      "inputs": [
        {
          "internalType": "address",
          "name": "account",
          "type": "address"
        },
        {
          "internalType": "uint256",
          "name": "blockNumber",
          "type": "uint256"
        }
      ],
      "name": "getPastVotes",
      "outputs": [
        {
          "internalType": "uint256",
          "name": "",
          "type": "uint256"
        }
      ],
      "stateMutability": "view",
      "type": "function"
    },
    {
      "inputs": [
        {
          "internalType": "address",
          "name": "account",
          "type": "address"
        }
      ],
      "name": "getVotes",
      "outputs": [
        {
          "internalType": "uint256",
          "name": "",
          "type": "uint256"
        }
      ],
      "stateMutability": "view",
      "type": "function"
    },
    {
      "inputs": [
        {
          "internalType": "address",
          "name": "spender",
          "type": "address"
        },
        {
          "internalType": "uint256",
          "name": "addedValue",
          "type": "uint256"
        }
      ],
      "name": "increaseAllowance",
      "outputs": [
        {
          "internalType": "bool",
          "name": "",
          "type": "bool"
        }
      ],
      "stateMutability": "nonpayable",
      "type": "function"
    },
    {
      "inputs": [
        {
          "internalType": "address",
          "name": "",
          "type": "address"
        },
        {
          "internalType": "uint256",
          "name": "",
          "type": "uint256"
        }
      ],
      "name": "isInterestClaimed",
      "outputs": [
        {
          "internalType": "bool",
          "name": "",
          "type": "bool"
        }
      ],
      "stateMutability": "view",
      "type": "function"
    },
    {
      "inputs": [],
      "name": "maxSupply",
      "outputs": [
        {
          "internalType": "uint256",
          "name": "",
          "type": "uint256"
        }
      ],
      "stateMutability": "view",
      "type": "function"
    },
    {
      "inputs": [],
      "name": "name",
      "outputs": [
        {
          "internalType": "string",
          "name": "",
          "type": "string"
        }
      ],
      "stateMutability": "view",
      "type": "function"
    },
    {
      "inputs": [
        {
          "internalType": "address",
          "name": "owner",
          "type": "address"
        }
      ],
      "name": "nonces",
      "outputs": [
        {
          "internalType": "uint256",
          "name": "",
          "type": "uint256"
        }
      ],
      "stateMutability": "view",
      "type": "function"
    },
    {
      "inputs": [
        {
          "internalType": "address",
          "name": "account",
          "type": "address"
        }
      ],
      "name": "numCheckpoints",
      "outputs": [
        {
          "internalType": "uint32",
          "name": "",
          "type": "uint32"
        }
      ],
      "stateMutability": "view",
      "type": "function"
    },
    {
      "inputs": [
        {
          "internalType": "address",
          "name": "owner",
          "type": "address"
        },
        {
          "internalType": "address",
          "name": "spender",
          "type": "address"
        },
        {
          "internalType": "uint256",
          "name": "value",
          "type": "uint256"
        },
        {
          "internalType": "uint256",
          "name": "deadline",
          "type": "uint256"
        },
        {
          "internalType": "uint8",
          "name": "v",
          "type": "uint8"
        },
        {
          "internalType": "bytes32",
          "name": "r",
          "type": "bytes32"
        },
        {
          "internalType": "bytes32",
          "name": "s",
          "type": "bytes32"
        }
      ],
      "name": "permit",
      "outputs": [],
      "stateMutability": "nonpayable",
      "type": "function"
    },
    {
      "inputs": [
        {
          "internalType": "uint256",
          "name": "_amountInUSDC",
          "type": "uint256"
        }
      ],
      "name": "sendUSDCandMint",
      "outputs": [],
      "stateMutability": "nonpayable",
      "type": "function"
    },
    {
      "inputs": [],
      "name": "symbol",
      "outputs": [
        {
          "internalType": "string",
          "name": "",
          "type": "string"
        }
      ],
      "stateMutability": "view",
      "type": "function"
    },
    {
      "inputs": [],
      "name": "totalSupply",
      "outputs": [
        {
          "internalType": "uint256",
          "name": "",
          "type": "uint256"
        }
      ],
      "stateMutability": "view",
      "type": "function"
    },
    {
      "inputs": [
        {
          "internalType": "address",
          "name": "to",
          "type": "address"
        },
        {
          "internalType": "uint256",
          "name": "amount",
          "type": "uint256"
        }
      ],
      "name": "transfer",
      "outputs": [
        {
          "internalType": "bool",
          "name": "",
          "type": "bool"
        }
      ],
      "stateMutability": "nonpayable",
      "type": "function"
    },
    {
      "inputs": [
        {
          "internalType": "address",
          "name": "from",
          "type": "address"
        },
        {
          "internalType": "address",
          "name": "to",
          "type": "address"
        },
        {
          "internalType": "uint256",
          "name": "amount",
          "type": "uint256"
        }
      ],
      "name": "transferFrom",
      "outputs": [
        {
          "internalType": "bool",
          "name": "",
          "type": "bool"
        }
      ],
      "stateMutability": "nonpayable",
      "type": "function"
    },
    {
      "stateMutability": "payable",
      "type": "receive"
    }
  ],
  "bytecode": "0x61014060405269d3c21bcecceda1000000600a553480156200002057600080fd5b506040516200275b3803806200275b833981016040819052620000439162000282565b6040518060400160405280600f81526020016e23b7bb32b93730b731b2aa37b5b2b760891b81525080604051806040016040528060018152602001603160f81b8152506040518060400160405280600f81526020016e23b7bb32b93730b731b2aa37b5b2b760891b8152506040518060400160405280600281526020016111d560f21b8152508160039080519060200190620000e1929190620001dc565b508051620000f7906004906020840190620001dc565b5050825160209384012082519284019290922060e08390526101008190524660a0818152604080517f8b73c3c69bb8fe3d512ecc4cf759cc79239f7b179b0ffacaa9a75d522b39400f818901819052818301979097526060810194909452608080850193909352308483018190528151808603909301835260c094850190915281519190960120905292909252610120525050600b805473a0b86991c6218b36c1d19d4a2e9eb0ce3606eb486001600160a01b031991821617909155600c805482166001600160a01b03939093169283179055600d80549091169091179055620002f1565b828054620001ea90620002b4565b90600052602060002090601f0160209004810192826200020e576000855562000259565b82601f106200022957805160ff191683800117855562000259565b8280016001018555821562000259579182015b82811115620002595782518255916020019190600101906200023c565b50620002679291506200026b565b5090565b5b808211156200026757600081556001016200026c565b6000602082840312156200029557600080fd5b81516001600160a01b0381168114620002ad57600080fd5b9392505050565b600181811c90821680620002c957607f821691505b60208210811415620002eb57634e487b7160e01b600052602260045260246000fd5b50919050565b60805160a05160c05160e051610100516101205161241a620003416000396000611574015260006115c30152600061159e015260006114f7015260006115210152600061154b015261241a6000f3fe6080604052600436106101c65760003560e01c80637a9bd2cc116100f7578063a9059cbb11610095578063dd62ed3e11610064578063dd62ed3e14610561578063e2fdcc17146105a7578063e42a96e7146105c7578063f1127ed8146105e757600080fd5b8063a9059cbb146104eb578063c3cda5201461050b578063d505accf1461052b578063d5abeb011461054b57600080fd5b80638e539e8c116100d15780638e539e8c1461047657806395d89b41146104965780639ab24eb0146104ab578063a457c2d7146104cb57600080fd5b80637a9bd2cc146104165780637ecebe001461043657806389a302711461045657600080fd5b806339509351116101645780635c19a95c1161013e5780635c19a95c146103505780636fcfff451461037057806370a08231146103a557806374eee08f146103db57600080fd5b806339509351146102bf5780633a46b1a8146102df578063587cde1e146102ff57600080fd5b806323b872dd116101a057806323b872dd1461024c5780632eb375ea1461026c578063313ce5671461028e5780633644e515146102aa57600080fd5b806306fdde03146101d2578063095ea7b3146101fd57806318160ddd1461022d57600080fd5b366101cd57005b600080fd5b3480156101de57600080fd5b506101e7610631565b6040516101f49190612071565b60405180910390f35b34801561020957600080fd5b5061021d6102183660046120e2565b6106c3565b60405190151581526020016101f4565b34801561023957600080fd5b506002545b6040519081526020016101f4565b34801561025857600080fd5b5061021d61026736600461210c565b6106db565b34801561027857600080fd5b5061028c610287366004612148565b6106ff565b005b34801561029a57600080fd5b50604051601281526020016101f4565b3480156102b657600080fd5b5061023e61099f565b3480156102cb57600080fd5b5061021d6102da3660046120e2565b6109ae565b3480156102eb57600080fd5b5061023e6102fa3660046120e2565b6109ed565b34801561030b57600080fd5b5061033861031a366004612161565b6001600160a01b039081166000908152600760205260409020541690565b6040516001600160a01b0390911681526020016101f4565b34801561035c57600080fd5b5061028c61036b366004612161565b610a67565b34801561037c57600080fd5b5061039061038b366004612161565b610a74565b60405163ffffffff90911681526020016101f4565b3480156103b157600080fd5b5061023e6103c0366004612161565b6001600160a01b031660009081526020819052604090205490565b3480156103e757600080fd5b5061021d6103f63660046120e2565b600e60209081526000928352604080842090915290825290205460ff1681565b34801561042257600080fd5b5061028c610431366004612148565b610a9c565b34801561044257600080fd5b5061023e610451366004612161565b610bfd565b34801561046257600080fd5b50600b54610338906001600160a01b031681565b34801561048257600080fd5b5061023e610491366004612148565b610c1b565b3480156104a257600080fd5b506101e7610c77565b3480156104b757600080fd5b5061023e6104c6366004612161565b610c86565b3480156104d757600080fd5b5061021d6104e63660046120e2565b610d0d565b3480156104f757600080fd5b5061021d6105063660046120e2565b610db7565b34801561051757600080fd5b5061028c61052636600461218d565b610dc5565b34801561053757600080fd5b5061028c6105463660046121e5565b610efb565b34801561055757600080fd5b5061023e600a5481565b34801561056d57600080fd5b5061023e61057c36600461224f565b6001600160a01b03918216600090815260016020908152604080832093909416825291909152205490565b3480156105b357600080fd5b50600d54610338906001600160a01b031681565b3480156105d357600080fd5b50600c54610338906001600160a01b031681565b3480156105f357600080fd5b50610607610602366004612282565b61105f565b60408051825163ffffffff1681526020928301516001600160e01b031692810192909252016101f4565b606060038054610640906122c2565b80601f016020809104026020016040519081016040528092919081815260200182805461066c906122c2565b80156106b95780601f1061068e576101008083540402835291602001916106b9565b820191906000526020600020905b81548152906001019060200180831161069c57829003601f168201915b5050505050905090565b6000336106d18185856110e3565b5060019392505050565b6000336106e985828561123b565b6106f48585856112cd565b506001949350505050565b336000908152600e6020908152604080832084845290915290205460ff16156107955760405162461bcd60e51b815260206004820152603860248201527f596f75206861766520616c726561647920636c61696d656420796f757220696e60448201527f74657265737420666f7220746869732063616d706169676e000000000000000060648201526084015b60405180910390fd5b33600090815260208190526040812054116107f25760405162461bcd60e51b815260206004820152601660248201527f596f7520617265206e6f7420617574686f72697a656400000000000000000000604482015260640161078c565b600c546040517fa0c4561e000000000000000000000000000000000000000000000000000000008152600481018390526000916001600160a01b03169063a0c4561e9060240160206040518083038186803b15801561085057600080fd5b505afa158015610864573d6000803e3d6000fd5b505050506040513d601f19601f8201168201806040525081019061088891906122f7565b9050600061089560025490565b336000908152602081905260409020546108b0906064612326565b6108ba9190612345565b9050600060646108ca8385612326565b6108d49190612345565b600b546040517fa9059cbb000000000000000000000000000000000000000000000000000000008152336004820152602481018390529192506001600160a01b03169063a9059cbb90604401602060405180830381600087803b15801561093a57600080fd5b505af115801561094e573d6000803e3d6000fd5b505050506040513d601f19601f820116820180604052508101906109729190612367565b5050336000908152600e6020908152604080832095835294905292909220805460ff191660011790555050565b60006109a96114ea565b905090565b3360008181526001602090815260408083206001600160a01b03871684529091528120549091906106d190829086906109e8908790612389565b6110e3565b6000438210610a3e5760405162461bcd60e51b815260206004820152601f60248201527f4552433230566f7465733a20626c6f636b206e6f7420796574206d696e656400604482015260640161078c565b6001600160a01b0383166000908152600860205260409020610a609083611611565b9392505050565b610a7133826116ce565b50565b6001600160a01b038116600090815260086020526040812054610a969061175f565b92915050565b600b54600d546040517f23b872dd0000000000000000000000000000000000000000000000000000000081523360048201526001600160a01b039182166024820152604481018490529116906323b872dd90606401602060405180830381600087803b158015610b0b57600080fd5b505af1158015610b1f573d6000803e3d6000fd5b505050506040513d601f19601f82011682018060405250810190610b439190612367565b506000610b558264e8d4a51000612326565b9050610b6133826117df565b600c546040517fb36b9fcf000000000000000000000000000000000000000000000000000000008152600481018490526001600160a01b039091169063b36b9fcf90602401602060405180830381600087803b158015610bc057600080fd5b505af1158015610bd4573d6000803e3d6000fd5b505050506040513d601f19601f82011682018060405250810190610bf891906122f7565b505050565b6001600160a01b038116600090815260056020526040812054610a96565b6000438210610c6c5760405162461bcd60e51b815260206004820152601f60248201527f4552433230566f7465733a20626c6f636b206e6f7420796574206d696e656400604482015260640161078c565b610a96600983611611565b606060048054610640906122c2565b6001600160a01b0381166000908152600860205260408120548015610cfa576001600160a01b0383166000908152600860205260409020610cc86001836123a1565b81548110610cd857610cd86123b8565b60009182526020909120015464010000000090046001600160e01b0316610cfd565b60005b6001600160e01b03169392505050565b3360008181526001602090815260408083206001600160a01b038716845290915281205490919083811015610daa5760405162461bcd60e51b815260206004820152602560248201527f45524332303a2064656372656173656420616c6c6f77616e63652062656c6f7760448201527f207a65726f000000000000000000000000000000000000000000000000000000606482015260840161078c565b6106f482868684036110e3565b6000336106d18185856112cd565b83421115610e155760405162461bcd60e51b815260206004820152601d60248201527f4552433230566f7465733a207369676e61747572652065787069726564000000604482015260640161078c565b604080517fe48329057bfd03d55e49b547132e39cffd9c1820ad7b9d4c5307691425d15adf60208201526001600160a01b038816918101919091526060810186905260808101859052600090610e8f90610e879060a001604051602081830303815290604052805190602001206117ed565b858585611856565b9050610e9a8161187e565b8614610ee85760405162461bcd60e51b815260206004820152601960248201527f4552433230566f7465733a20696e76616c6964206e6f6e636500000000000000604482015260640161078c565b610ef281886116ce565b50505050505050565b83421115610f4b5760405162461bcd60e51b815260206004820152601d60248201527f45524332305065726d69743a206578706972656420646561646c696e65000000604482015260640161078c565b60007f6e71edae12b1b97f4d1f60370fef10105fa2faae0126114a169c64845d6126c9888888610f7a8c61187e565b6040805160208101969096526001600160a01b0394851690860152929091166060840152608083015260a082015260c0810186905260e0016040516020818303038152906040528051906020012090506000610fd5826117ed565b90506000610fe582878787611856565b9050896001600160a01b0316816001600160a01b0316146110485760405162461bcd60e51b815260206004820152601e60248201527f45524332305065726d69743a20696e76616c6964207369676e61747572650000604482015260640161078c565b6110538a8a8a6110e3565b50505050505050505050565b60408051808201909152600080825260208201526001600160a01b0383166000908152600860205260409020805463ffffffff84169081106110a3576110a36123b8565b60009182526020918290206040805180820190915291015463ffffffff8116825264010000000090046001600160e01b0316918101919091529392505050565b6001600160a01b03831661115e5760405162461bcd60e51b8152602060048201526024808201527f45524332303a20617070726f76652066726f6d20746865207a65726f2061646460448201527f7265737300000000000000000000000000000000000000000000000000000000606482015260840161078c565b6001600160a01b0382166111da5760405162461bcd60e51b815260206004820152602260248201527f45524332303a20617070726f766520746f20746865207a65726f20616464726560448201527f7373000000000000000000000000000000000000000000000000000000000000606482015260840161078c565b6001600160a01b0383811660008181526001602090815260408083209487168084529482529182902085905590518481527f8c5be1e5ebec7d5bd14f71427d1e84f3dd0314c0f7b2291e5b200ac8c7c3b925910160405180910390a3505050565b6001600160a01b0383811660009081526001602090815260408083209386168352929052205460001981146112c757818110156112ba5760405162461bcd60e51b815260206004820152601d60248201527f45524332303a20696e73756666696369656e7420616c6c6f77616e6365000000604482015260640161078c565b6112c784848484036110e3565b50505050565b6001600160a01b0383166113495760405162461bcd60e51b815260206004820152602560248201527f45524332303a207472616e736665722066726f6d20746865207a65726f20616460448201527f6472657373000000000000000000000000000000000000000000000000000000606482015260840161078c565b6001600160a01b0382166113c55760405162461bcd60e51b815260206004820152602360248201527f45524332303a207472616e7366657220746f20746865207a65726f206164647260448201527f6573730000000000000000000000000000000000000000000000000000000000606482015260840161078c565b6001600160a01b038316600090815260208190526040902054818110156114545760405162461bcd60e51b815260206004820152602660248201527f45524332303a207472616e7366657220616d6f756e742065786365656473206260448201527f616c616e63650000000000000000000000000000000000000000000000000000606482015260840161078c565b6001600160a01b0380851660009081526020819052604080822085850390559185168152908120805484929061148b908490612389565b92505081905550826001600160a01b0316846001600160a01b03167fddf252ad1be2c89b69c2b068fc378daa952ba7f163c4a11628f55a4df523b3ef846040516114d791815260200190565b60405180910390a36112c78484846118a6565b6000306001600160a01b037f00000000000000000000000000000000000000000000000000000000000000001614801561154357507f000000000000000000000000000000000000000000000000000000000000000046145b1561156d57507f000000000000000000000000000000000000000000000000000000000000000090565b50604080517f00000000000000000000000000000000000000000000000000000000000000006020808301919091527f0000000000000000000000000000000000000000000000000000000000000000828401527f000000000000000000000000000000000000000000000000000000000000000060608301524660808301523060a0808401919091528351808403909101815260c0909201909252805191012090565b8154600090815b8181101561167557600061162c82846118b1565b905084868281548110611641576116416123b8565b60009182526020909120015463ffffffff1611156116615780925061166f565b61166c816001612389565b91505b50611618565b81156116b957846116876001846123a1565b81548110611697576116976123b8565b60009182526020909120015464010000000090046001600160e01b03166116bc565b60005b6001600160e01b031695945050505050565b6001600160a01b038281166000818152600760208181526040808420805485845282862054949093528787167fffffffffffffffffffffffff00000000000000000000000000000000000000008416811790915590519190951694919391928592917f3134e8a2e6d97e929a7e54011ea5485d7d196dd5f0ba4d4ef95803e8e3fc257f9190a46112c78284836118cc565b600063ffffffff8211156117db5760405162461bcd60e51b815260206004820152602660248201527f53616665436173743a2076616c756520646f65736e27742066697420696e203360448201527f3220626974730000000000000000000000000000000000000000000000000000606482015260840161078c565b5090565b6117e98282611a09565b5050565b6000610a966117fa6114ea565b836040517f19010000000000000000000000000000000000000000000000000000000000006020820152602281018390526042810182905260009060620160405160208183030381529060405280519060200120905092915050565b600080600061186787878787611aa0565b9150915061187481611b8d565b5095945050505050565b6001600160a01b03811660009081526005602052604090208054600181018255905b50919050565b610bf8838383611d48565b60006118c06002848418612345565b610a6090848416612389565b816001600160a01b0316836001600160a01b0316141580156118ee5750600081115b15610bf8576001600160a01b0383161561197c576001600160a01b0383166000908152600860205260408120819061192990611d7a85611d86565b91509150846001600160a01b03167fdec2bacdd2f05b59de34da9b523dff8be42e5e38e818c82fdb0bae774387a7248383604051611971929190918252602082015260400190565b60405180910390a250505b6001600160a01b03821615610bf8576001600160a01b038216600090815260086020526040812081906119b290611eff85611d86565b91509150836001600160a01b03167fdec2bacdd2f05b59de34da9b523dff8be42e5e38e818c82fdb0bae774387a72483836040516119fa929190918252602082015260400190565b60405180910390a25050505050565b611a138282611f0b565b6002546001600160e01b031015611a925760405162461bcd60e51b815260206004820152603060248201527f4552433230566f7465733a20746f74616c20737570706c79207269736b73206f60448201527f766572666c6f77696e6720766f74657300000000000000000000000000000000606482015260840161078c565b6112c76009611eff83611d86565b6000807f7fffffffffffffffffffffffffffffff5d576e7357a4501ddfe92f46681b20a0831115611ad75750600090506003611b84565b8460ff16601b14158015611aef57508460ff16601c14155b15611b005750600090506004611b84565b6040805160008082526020820180845289905260ff881692820192909252606081018690526080810185905260019060a0016020604051602081039080840390855afa158015611b54573d6000803e3d6000fd5b5050604051601f1901519150506001600160a01b038116611b7d57600060019250925050611b84565b9150600090505b94509492505050565b6000816004811115611ba157611ba16123ce565b1415611baa5750565b6001816004811115611bbe57611bbe6123ce565b1415611c0c5760405162461bcd60e51b815260206004820152601860248201527f45434453413a20696e76616c6964207369676e61747572650000000000000000604482015260640161078c565b6002816004811115611c2057611c206123ce565b1415611c6e5760405162461bcd60e51b815260206004820152601f60248201527f45434453413a20696e76616c6964207369676e6174757265206c656e67746800604482015260640161078c565b6003816004811115611c8257611c826123ce565b1415611cdb5760405162461bcd60e51b815260206004820152602260248201527f45434453413a20696e76616c6964207369676e6174757265202773272076616c604482015261756560f01b606482015260840161078c565b6004816004811115611cef57611cef6123ce565b1415610a715760405162461bcd60e51b815260206004820152602260248201527f45434453413a20696e76616c6964207369676e6174757265202776272076616c604482015261756560f01b606482015260840161078c565b6001600160a01b03838116600090815260076020526040808220548584168352912054610bf8929182169116836118cc565b6000610a6082846123a1565b825460009081908015611dd15785611d9f6001836123a1565b81548110611daf57611daf6123b8565b60009182526020909120015464010000000090046001600160e01b0316611dd4565b60005b6001600160e01b03169250611ded83858763ffffffff16565b9150600081118015611e2b57504386611e076001846123a1565b81548110611e1757611e176123b8565b60009182526020909120015463ffffffff16145b15611e8b57611e3982611ff2565b86611e456001846123a1565b81548110611e5557611e556123b8565b9060005260206000200160000160046101000a8154816001600160e01b0302191690836001600160e01b03160217905550611ef6565b856040518060400160405280611ea04361175f565b63ffffffff168152602001611eb485611ff2565b6001600160e01b0390811690915282546001810184556000938452602093849020835194909301519091166401000000000263ffffffff909316929092179101555b50935093915050565b6000610a608284612389565b6001600160a01b038216611f615760405162461bcd60e51b815260206004820152601f60248201527f45524332303a206d696e7420746f20746865207a65726f206164647265737300604482015260640161078c565b8060026000828254611f739190612389565b90915550506001600160a01b03821660009081526020819052604081208054839290611fa0908490612389565b90915550506040518181526001600160a01b038316906000907fddf252ad1be2c89b69c2b068fc378daa952ba7f163c4a11628f55a4df523b3ef9060200160405180910390a36117e9600083836118a6565b60006001600160e01b038211156117db5760405162461bcd60e51b815260206004820152602760248201527f53616665436173743a2076616c756520646f65736e27742066697420696e203260448201527f3234206269747300000000000000000000000000000000000000000000000000606482015260840161078c565b600060208083528351808285015260005b8181101561209e57858101830151858201604001528201612082565b818111156120b0576000604083870101525b50601f01601f1916929092016040019392505050565b80356001600160a01b03811681146120dd57600080fd5b919050565b600080604083850312156120f557600080fd5b6120fe836120c6565b946020939093013593505050565b60008060006060848603121561212157600080fd5b61212a846120c6565b9250612138602085016120c6565b9150604084013590509250925092565b60006020828403121561215a57600080fd5b5035919050565b60006020828403121561217357600080fd5b610a60826120c6565b803560ff811681146120dd57600080fd5b60008060008060008060c087890312156121a657600080fd5b6121af876120c6565b955060208701359450604087013593506121cb6060880161217c565b92506080870135915060a087013590509295509295509295565b600080600080600080600060e0888a03121561220057600080fd5b612209886120c6565b9650612217602089016120c6565b955060408801359450606088013593506122336080890161217c565b925060a0880135915060c0880135905092959891949750929550565b6000806040838503121561226257600080fd5b61226b836120c6565b9150612279602084016120c6565b90509250929050565b6000806040838503121561229557600080fd5b61229e836120c6565b9150602083013563ffffffff811681146122b757600080fd5b809150509250929050565b600181811c908216806122d657607f821691505b602082108114156118a057634e487b7160e01b600052602260045260246000fd5b60006020828403121561230957600080fd5b5051919050565b634e487b7160e01b600052601160045260246000fd5b600081600019048311821515161561234057612340612310565b500290565b60008261236257634e487b7160e01b600052601260045260246000fd5b500490565b60006020828403121561237957600080fd5b81518015158114610a6057600080fd5b6000821982111561239c5761239c612310565b500190565b6000828210156123b3576123b3612310565b500390565b634e487b7160e01b600052603260045260246000fd5b634e487b7160e01b600052602160045260246000fdfea26469706673582212201c08a04be5d34942c513009ec5922575b75536de8545f7a22e3f6a3eff81746364736f6c63430008090033",
  "linkReferences": {},
  "deployedLinkReferences": {}
}