{
  "_format": "hh-sol-artifact-1",
  "contractName": "GovernorContract",
  "sourceName": "src/backend/contracts/GovernorContract.sol",
  "abi": [
    {
      "inputs": [
        {
          "internalType": "contract IVotes",
          "name": "_token",
          "type": "address"
        },
        {
          "internalType": "contract TimelockController",
          "name": "_timelock",
          "type": "address"
        },
        {
          "internalType": "uint256",
          "name": "_quorumPercentage",
          "type": "uint256"
        },
        {
          "internalType": "uint256",
          "name": "_votingPeriod",
          "type": "uint256"
        },
        {
          "internalType": "uint256",
          "name": "_votingDelay",
          "type": "uint256"
        }
      ],
      "stateMutability": "nonpayable",
      "type": "constructor"
    },
    {
      "inputs": [],
      "name": "Empty",
      "type": "error"
    },
    {
      "anonymous": false,
      "inputs": [
        {
          "indexed": false,
          "internalType": "uint256",
          "name": "proposalId",
          "type": "uint256"
        }
      ],
      "name": "ProposalCanceled",
      "type": "event"
    },
    {
      "anonymous": false,
      "inputs": [
        {
          "indexed": false,
          "internalType": "uint256",
          "name": "proposalId",
          "type": "uint256"
        },
        {
          "indexed": false,
          "internalType": "address",
          "name": "proposer",
          "type": "address"
        },
        {
          "indexed": false,
          "internalType": "address[]",
          "name": "targets",
          "type": "address[]"
        },
        {
          "indexed": false,
          "internalType": "uint256[]",
          "name": "values",
          "type": "uint256[]"
        },
        {
          "indexed": false,
          "internalType": "string[]",
          "name": "signatures",
          "type": "string[]"
        },
        {
          "indexed": false,
          "internalType": "bytes[]",
          "name": "calldatas",
          "type": "bytes[]"
        },
        {
          "indexed": false,
          "internalType": "uint256",
          "name": "startBlock",
          "type": "uint256"
        },
        {
          "indexed": false,
          "internalType": "uint256",
          "name": "endBlock",
          "type": "uint256"
        },
        {
          "indexed": false,
          "internalType": "string",
          "name": "description",
          "type": "string"
        }
      ],
      "name": "ProposalCreated",
      "type": "event"
    },
    {
      "anonymous": false,
      "inputs": [
        {
          "indexed": false,
          "internalType": "uint256",
          "name": "proposalId",
          "type": "uint256"
        }
      ],
      "name": "ProposalExecuted",
      "type": "event"
    },
    {
      "anonymous": false,
      "inputs": [
        {
          "indexed": false,
          "internalType": "uint256",
          "name": "proposalId",
          "type": "uint256"
        },
        {
          "indexed": false,
          "internalType": "uint256",
          "name": "eta",
          "type": "uint256"
        }
      ],
      "name": "ProposalQueued",
      "type": "event"
    },
    {
      "anonymous": false,
      "inputs": [
        {
          "indexed": false,
          "internalType": "uint256",
          "name": "oldProposalThreshold",
          "type": "uint256"
        },
        {
          "indexed": false,
          "internalType": "uint256",
          "name": "newProposalThreshold",
          "type": "uint256"
        }
      ],
      "name": "ProposalThresholdSet",
      "type": "event"
    },
    {
      "anonymous": false,
      "inputs": [
        {
          "indexed": false,
          "internalType": "uint256",
          "name": "oldQuorumNumerator",
          "type": "uint256"
        },
        {
          "indexed": false,
          "internalType": "uint256",
          "name": "newQuorumNumerator",
          "type": "uint256"
        }
      ],
      "name": "QuorumNumeratorUpdated",
      "type": "event"
    },
    {
      "anonymous": false,
      "inputs": [
        {
          "indexed": false,
          "internalType": "address",
          "name": "oldTimelock",
          "type": "address"
        },
        {
          "indexed": false,
          "internalType": "address",
          "name": "newTimelock",
          "type": "address"
        }
      ],
      "name": "TimelockChange",
      "type": "event"
    },
    {
      "anonymous": false,
      "inputs": [
        {
          "indexed": true,
          "internalType": "address",
          "name": "voter",
          "type": "address"
        },
        {
          "indexed": false,
          "internalType": "uint256",
          "name": "proposalId",
          "type": "uint256"
        },
        {
          "indexed": false,
          "internalType": "uint8",
          "name": "support",
          "type": "uint8"
        },
        {
          "indexed": false,
          "internalType": "uint256",
          "name": "weight",
          "type": "uint256"
        },
        {
          "indexed": false,
          "internalType": "string",
          "name": "reason",
          "type": "string"
        }
      ],
      "name": "VoteCast",
      "type": "event"
    },
    {
      "anonymous": false,
      "inputs": [
        {
          "indexed": true,
          "internalType": "address",
          "name": "voter",
          "type": "address"
        },
        {
          "indexed": false,
          "internalType": "uint256",
          "name": "proposalId",
          "type": "uint256"
        },
        {
          "indexed": false,
          "internalType": "uint8",
          "name": "support",
          "type": "uint8"
        },
        {
          "indexed": false,
          "internalType": "uint256",
          "name": "weight",
          "type": "uint256"
        },
        {
          "indexed": false,
          "internalType": "string",
          "name": "reason",
          "type": "string"
        },
        {
          "indexed": false,
          "internalType": "bytes",
          "name": "params",
          "type": "bytes"
        }
      ],
      "name": "VoteCastWithParams",
      "type": "event"
    },
    {
      "anonymous": false,
      "inputs": [
        {
          "indexed": false,
          "internalType": "uint256",
          "name": "oldVotingDelay",
          "type": "uint256"
        },
        {
          "indexed": false,
          "internalType": "uint256",
          "name": "newVotingDelay",
          "type": "uint256"
        }
      ],
      "name": "VotingDelaySet",
      "type": "event"
    },
    {
      "anonymous": false,
      "inputs": [
        {
          "indexed": false,
          "internalType": "uint256",
          "name": "oldVotingPeriod",
          "type": "uint256"
        },
        {
          "indexed": false,
          "internalType": "uint256",
          "name": "newVotingPeriod",
          "type": "uint256"
        }
      ],
      "name": "VotingPeriodSet",
      "type": "event"
    },
    {
      "inputs": [],
      "name": "BALLOT_TYPEHASH",
      "outputs": [
        {
          "internalType": "bytes32",
          "name": "",
          "type": "bytes32"
        }
      ],
      "stateMutability": "view",
      "type": "function"
    },
    {
      "inputs": [],
      "name": "COUNTING_MODE",
      "outputs": [
        {
          "internalType": "string",
          "name": "",
          "type": "string"
        }
      ],
      "stateMutability": "pure",
      "type": "function"
    },
    {
      "inputs": [],
      "name": "EXTENDED_BALLOT_TYPEHASH",
      "outputs": [
        {
          "internalType": "bytes32",
          "name": "",
          "type": "bytes32"
        }
      ],
      "stateMutability": "view",
      "type": "function"
    },
    {
      "inputs": [
        {
          "internalType": "uint256",
          "name": "",
          "type": "uint256"
        }
      ],
      "name": "allProposals",
      "outputs": [
        {
          "internalType": "uint256",
          "name": "proposalId",
          "type": "uint256"
        },
        {
          "internalType": "string",
          "name": "description",
          "type": "string"
        }
      ],
      "stateMutability": "view",
      "type": "function"
    },
    {
      "inputs": [
        {
          "internalType": "uint256",
          "name": "proposalId",
          "type": "uint256"
        },
        {
          "internalType": "uint8",
          "name": "support",
          "type": "uint8"
        }
      ],
      "name": "castVote",
      "outputs": [
        {
          "internalType": "uint256",
          "name": "",
          "type": "uint256"
        }
      ],
      "stateMutability": "nonpayable",
      "type": "function"
    },
    {
      "inputs": [
        {
          "internalType": "uint256",
          "name": "proposalId",
          "type": "uint256"
        },
        {
          "internalType": "uint8",
          "name": "support",
          "type": "uint8"
        },
        {
          "internalType": "uint8",
          "name": "v",
          "type": "uint8"
        },
        {
          "internalType": "bytes32",
          "name": "r",
          "type": "bytes32"
        },
        {
          "internalType": "bytes32",
          "name": "s",
          "type": "bytes32"
        }
      ],
      "name": "castVoteBySig",
      "outputs": [
        {
          "internalType": "uint256",
          "name": "",
          "type": "uint256"
        }
      ],
      "stateMutability": "nonpayable",
      "type": "function"
    },
    {
      "inputs": [
        {
          "internalType": "uint256",
          "name": "proposalId",
          "type": "uint256"
        },
        {
          "internalType": "uint8",
          "name": "support",
          "type": "uint8"
        },
        {
          "internalType": "string",
          "name": "reason",
          "type": "string"
        }
      ],
      "name": "castVoteWithReason",
      "outputs": [
        {
          "internalType": "uint256",
          "name": "",
          "type": "uint256"
        }
      ],
      "stateMutability": "nonpayable",
      "type": "function"
    },
    {
      "inputs": [
        {
          "internalType": "uint256",
          "name": "proposalId",
          "type": "uint256"
        },
        {
          "internalType": "uint8",
          "name": "support",
          "type": "uint8"
        },
        {
          "internalType": "string",
          "name": "reason",
          "type": "string"
        },
        {
          "internalType": "bytes",
          "name": "params",
          "type": "bytes"
        }
      ],
      "name": "castVoteWithReasonAndParams",
      "outputs": [
        {
          "internalType": "uint256",
          "name": "",
          "type": "uint256"
        }
      ],
      "stateMutability": "nonpayable",
      "type": "function"
    },
    {
      "inputs": [
        {
          "internalType": "uint256",
          "name": "proposalId",
          "type": "uint256"
        },
        {
          "internalType": "uint8",
          "name": "support",
          "type": "uint8"
        },
        {
          "internalType": "string",
          "name": "reason",
          "type": "string"
        },
        {
          "internalType": "bytes",
          "name": "params",
          "type": "bytes"
        },
        {
          "internalType": "uint8",
          "name": "v",
          "type": "uint8"
        },
        {
          "internalType": "bytes32",
          "name": "r",
          "type": "bytes32"
        },
        {
          "internalType": "bytes32",
          "name": "s",
          "type": "bytes32"
        }
      ],
      "name": "castVoteWithReasonAndParamsBySig",
      "outputs": [
        {
          "internalType": "uint256",
          "name": "",
          "type": "uint256"
        }
      ],
      "stateMutability": "nonpayable",
      "type": "function"
    },
    {
      "inputs": [
        {
          "internalType": "address[]",
          "name": "targets",
          "type": "address[]"
        },
        {
          "internalType": "uint256[]",
          "name": "values",
          "type": "uint256[]"
        },
        {
          "internalType": "bytes[]",
          "name": "calldatas",
          "type": "bytes[]"
        },
        {
          "internalType": "bytes32",
          "name": "descriptionHash",
          "type": "bytes32"
        }
      ],
      "name": "execute",
      "outputs": [
        {
          "internalType": "uint256",
          "name": "",
          "type": "uint256"
        }
      ],
      "stateMutability": "payable",
      "type": "function"
    },
    {
      "inputs": [
        {
          "internalType": "uint256",
          "name": "_num",
          "type": "uint256"
        }
      ],
      "name": "getAllProposals",
      "outputs": [
        {
          "components": [
            {
              "internalType": "uint256",
              "name": "proposalId",
              "type": "uint256"
            },
            {
              "internalType": "string",
              "name": "description",
              "type": "string"
            }
          ],
          "internalType": "struct GovernorContract.EachProposal",
          "name": "",
          "type": "tuple"
        }
      ],
      "stateMutability": "view",
      "type": "function"
    },
    {
      "inputs": [
        {
          "internalType": "address",
          "name": "account",
          "type": "address"
        },
        {
          "internalType": "uint256",
          "name": "blockNumber",
          "type": "uint256"
        }
      ],
      "name": "getVotes",
      "outputs": [
        {
          "internalType": "uint256",
          "name": "",
          "type": "uint256"
        }
      ],
      "stateMutability": "view",
      "type": "function"
    },
    {
      "inputs": [
        {
          "internalType": "address",
          "name": "account",
          "type": "address"
        },
        {
          "internalType": "uint256",
          "name": "blockNumber",
          "type": "uint256"
        },
        {
          "internalType": "bytes",
          "name": "params",
          "type": "bytes"
        }
      ],
      "name": "getVotesWithParams",
      "outputs": [
        {
          "internalType": "uint256",
          "name": "",
          "type": "uint256"
        }
      ],
      "stateMutability": "view",
      "type": "function"
    },
    {
      "inputs": [
        {
          "internalType": "uint256",
          "name": "proposalId",
          "type": "uint256"
        },
        {
          "internalType": "address",
          "name": "account",
          "type": "address"
        }
      ],
      "name": "hasVoted",
      "outputs": [
        {
          "internalType": "bool",
          "name": "",
          "type": "bool"
        }
      ],
      "stateMutability": "view",
      "type": "function"
    },
    {
      "inputs": [
        {
          "internalType": "address[]",
          "name": "targets",
          "type": "address[]"
        },
        {
          "internalType": "uint256[]",
          "name": "values",
          "type": "uint256[]"
        },
        {
          "internalType": "bytes[]",
          "name": "calldatas",
          "type": "bytes[]"
        },
        {
          "internalType": "bytes32",
          "name": "descriptionHash",
          "type": "bytes32"
        }
      ],
      "name": "hashProposal",
      "outputs": [
        {
          "internalType": "uint256",
          "name": "",
          "type": "uint256"
        }
      ],
      "stateMutability": "pure",
      "type": "function"
    },
    {
      "inputs": [],
      "name": "name",
      "outputs": [
        {
          "internalType": "string",
          "name": "",
          "type": "string"
        }
      ],
      "stateMutability": "view",
      "type": "function"
    },
    {
      "inputs": [
        {
          "internalType": "address",
          "name": "",
          "type": "address"
        },
        {
          "internalType": "address",
          "name": "",
          "type": "address"
        },
        {
          "internalType": "uint256[]",
          "name": "",
          "type": "uint256[]"
        },
        {
          "internalType": "uint256[]",
          "name": "",
          "type": "uint256[]"
        },
        {
          "internalType": "bytes",
          "name": "",
          "type": "bytes"
        }
      ],
      "name": "onERC1155BatchReceived",
      "outputs": [
        {
          "internalType": "bytes4",
          "name": "",
          "type": "bytes4"
        }
      ],
      "stateMutability": "nonpayable",
      "type": "function"
    },
    {
      "inputs": [
        {
          "internalType": "address",
          "name": "",
          "type": "address"
        },
        {
          "internalType": "address",
          "name": "",
          "type": "address"
        },
        {
          "internalType": "uint256",
          "name": "",
          "type": "uint256"
        },
        {
          "internalType": "uint256",
          "name": "",
          "type": "uint256"
        },
        {
          "internalType": "bytes",
          "name": "",
          "type": "bytes"
        }
      ],
      "name": "onERC1155Received",
      "outputs": [
        {
          "internalType": "bytes4",
          "name": "",
          "type": "bytes4"
        }
      ],
      "stateMutability": "nonpayable",
      "type": "function"
    },
    {
      "inputs": [
        {
          "internalType": "address",
          "name": "",
          "type": "address"
        },
        {
          "internalType": "address",
          "name": "",
          "type": "address"
        },
        {
          "internalType": "uint256",
          "name": "",
          "type": "uint256"
        },
        {
          "internalType": "bytes",
          "name": "",
          "type": "bytes"
        }
      ],
      "name": "onERC721Received",
      "outputs": [
        {
          "internalType": "bytes4",
          "name": "",
          "type": "bytes4"
        }
      ],
      "stateMutability": "nonpayable",
      "type": "function"
    },
    {
      "inputs": [
        {
          "internalType": "uint256",
          "name": "proposalId",
          "type": "uint256"
        }
      ],
      "name": "proposalDeadline",
      "outputs": [
        {
          "internalType": "uint256",
          "name": "",
          "type": "uint256"
        }
      ],
      "stateMutability": "view",
      "type": "function"
    },
    {
      "inputs": [
        {
          "internalType": "uint256",
          "name": "proposalId",
          "type": "uint256"
        }
      ],
      "name": "proposalEta",
      "outputs": [
        {
          "internalType": "uint256",
          "name": "",
          "type": "uint256"
        }
      ],
      "stateMutability": "view",
      "type": "function"
    },
    {
      "inputs": [],
      "name": "proposalNum",
      "outputs": [
        {
          "internalType": "uint256",
          "name": "",
          "type": "uint256"
        }
      ],
      "stateMutability": "view",
      "type": "function"
    },
    {
      "inputs": [
        {
          "internalType": "uint256",
          "name": "proposalId",
          "type": "uint256"
        }
      ],
      "name": "proposalSnapshot",
      "outputs": [
        {
          "internalType": "uint256",
          "name": "",
          "type": "uint256"
        }
      ],
      "stateMutability": "view",
      "type": "function"
    },
    {
      "inputs": [],
      "name": "proposalThreshold",
      "outputs": [
        {
          "internalType": "uint256",
          "name": "",
          "type": "uint256"
        }
      ],
      "stateMutability": "view",
      "type": "function"
    },
    {
      "inputs": [
        {
          "internalType": "uint256",
          "name": "proposalId",
          "type": "uint256"
        }
      ],
      "name": "proposalVotes",
      "outputs": [
        {
          "internalType": "uint256",
          "name": "againstVotes",
          "type": "uint256"
        },
        {
          "internalType": "uint256",
          "name": "forVotes",
          "type": "uint256"
        },
        {
          "internalType": "uint256",
          "name": "abstainVotes",
          "type": "uint256"
        }
      ],
      "stateMutability": "view",
      "type": "function"
    },
    {
      "inputs": [
        {
          "internalType": "address[]",
          "name": "targets",
          "type": "address[]"
        },
        {
          "internalType": "uint256[]",
          "name": "values",
          "type": "uint256[]"
        },
        {
          "internalType": "bytes[]",
          "name": "calldatas",
          "type": "bytes[]"
        },
        {
          "internalType": "string",
          "name": "description",
          "type": "string"
        }
      ],
      "name": "propose",
      "outputs": [
        {
          "internalType": "uint256",
          "name": "",
          "type": "uint256"
        }
      ],
      "stateMutability": "nonpayable",
      "type": "function"
    },
    {
      "inputs": [
        {
          "internalType": "address[]",
          "name": "targets",
          "type": "address[]"
        },
        {
          "internalType": "uint256[]",
          "name": "values",
          "type": "uint256[]"
        },
        {
          "internalType": "bytes[]",
          "name": "calldatas",
          "type": "bytes[]"
        },
        {
          "internalType": "bytes32",
          "name": "descriptionHash",
          "type": "bytes32"
        }
      ],
      "name": "queue",
      "outputs": [
        {
          "internalType": "uint256",
          "name": "",
          "type": "uint256"
        }
      ],
      "stateMutability": "nonpayable",
      "type": "function"
    },
    {
      "inputs": [
        {
          "internalType": "uint256",
          "name": "blockNumber",
          "type": "uint256"
        }
      ],
      "name": "quorum",
      "outputs": [
        {
          "internalType": "uint256",
          "name": "",
          "type": "uint256"
        }
      ],
      "stateMutability": "view",
      "type": "function"
    },
    {
      "inputs": [],
      "name": "quorumDenominator",
      "outputs": [
        {
          "internalType": "uint256",
          "name": "",
          "type": "uint256"
        }
      ],
      "stateMutability": "view",
      "type": "function"
    },
    {
      "inputs": [
        {
          "internalType": "uint256",
          "name": "blockNumber",
          "type": "uint256"
        }
      ],
      "name": "quorumNumerator",
      "outputs": [
        {
          "internalType": "uint256",
          "name": "",
          "type": "uint256"
        }
      ],
      "stateMutability": "view",
      "type": "function"
    },
    {
      "inputs": [],
      "name": "quorumNumerator",
      "outputs": [
        {
          "internalType": "uint256",
          "name": "",
          "type": "uint256"
        }
      ],
      "stateMutability": "view",
      "type": "function"
    },
    {
      "inputs": [
        {
          "internalType": "address",
          "name": "target",
          "type": "address"
        },
        {
          "internalType": "uint256",
          "name": "value",
          "type": "uint256"
        },
        {
          "internalType": "bytes",
          "name": "data",
          "type": "bytes"
        }
      ],
      "name": "relay",
      "outputs": [],
      "stateMutability": "nonpayable",
      "type": "function"
    },
    {
      "inputs": [
        {
          "internalType": "uint256",
          "name": "newProposalThreshold",
          "type": "uint256"
        }
      ],
      "name": "setProposalThreshold",
      "outputs": [],
      "stateMutability": "nonpayable",
      "type": "function"
    },
    {
      "inputs": [
        {
          "internalType": "uint256",
          "name": "newVotingDelay",
          "type": "uint256"
        }
      ],
      "name": "setVotingDelay",
      "outputs": [],
      "stateMutability": "nonpayable",
      "type": "function"
    },
    {
      "inputs": [
        {
          "internalType": "uint256",
          "name": "newVotingPeriod",
          "type": "uint256"
        }
      ],
      "name": "setVotingPeriod",
      "outputs": [],
      "stateMutability": "nonpayable",
      "type": "function"
    },
    {
      "inputs": [
        {
          "internalType": "uint256",
          "name": "proposalId",
          "type": "uint256"
        }
      ],
      "name": "state",
      "outputs": [
        {
          "internalType": "enum IGovernor.ProposalState",
          "name": "",
          "type": "uint8"
        }
      ],
      "stateMutability": "view",
      "type": "function"
    },
    {
      "inputs": [
        {
          "internalType": "bytes4",
          "name": "interfaceId",
          "type": "bytes4"
        }
      ],
      "name": "supportsInterface",
      "outputs": [
        {
          "internalType": "bool",
          "name": "",
          "type": "bool"
        }
      ],
      "stateMutability": "view",
      "type": "function"
    },
    {
      "inputs": [],
      "name": "timelock",
      "outputs": [
        {
          "internalType": "address",
          "name": "",
          "type": "address"
        }
      ],
      "stateMutability": "view",
      "type": "function"
    },
    {
      "inputs": [],
      "name": "token",
      "outputs": [
        {
          "internalType": "contract IVotes",
          "name": "",
          "type": "address"
        }
      ],
      "stateMutability": "view",
      "type": "function"
    },
    {
      "inputs": [
        {
          "internalType": "uint256",
          "name": "newQuorumNumerator",
          "type": "uint256"
        }
      ],
      "name": "updateQuorumNumerator",
      "outputs": [],
      "stateMutability": "nonpayable",
      "type": "function"
    },
    {
      "inputs": [
        {
          "internalType": "contract TimelockController",
          "name": "newTimelock",
          "type": "address"
        }
      ],
      "name": "updateTimelock",
      "outputs": [],
      "stateMutability": "nonpayable",
      "type": "function"
    },
    {
      "inputs": [],
      "name": "version",
      "outputs": [
        {
          "internalType": "string",
          "name": "",
          "type": "string"
        }
      ],
      "stateMutability": "view",
      "type": "function"
    },
    {
      "inputs": [],
      "name": "votingDelay",
      "outputs": [
        {
          "internalType": "uint256",
          "name": "",
          "type": "uint256"
        }
      ],
      "stateMutability": "view",
      "type": "function"
    },
    {
      "inputs": [],
      "name": "votingPeriod",
      "outputs": [
        {
          "internalType": "uint256",
          "name": "",
          "type": "uint256"
        }
      ],
      "stateMutability": "view",
      "type": "function"
    },
    {
      "stateMutability": "payable",
      "type": "receive"
    }
  ],
  "bytecode": "0x6101606040523480156200001257600080fd5b5060405162004e1e38038062004e1e833981016040819052620000359162000811565b838386838560006040518060400160405280601081526020016f11dbdd995c9b9bdc90dbdb9d1c9858dd60821b81525080620000766200017360201b60201c565b815160208084019190912082518383012060e08290526101008190524660a0818152604080517f8b73c3c69bb8fe3d512ecc4cf759cc79239f7b179b0ffacaa9a75d522b39400f81880181905281830187905260608201869052608082019490945230818401528151808203909301835260c00190528051940193909320919290916080523060c05261012052505082516200011c92506000915060208401906200075c565b506200012a9050836200018e565b6200013582620001cf565b620001408162000276565b5050506001600160a01b0316610140526200015b81620002b7565b5062000167816200042f565b505050505050620008e2565b6040805180820190915260018152603160f81b602082015290565b60045460408051918252602082018390527fc565b045403dc03c2eea82b81a0465edad9e2e7fc4d97e11421c209da93d7a93910160405180910390a1600455565b60008111620002355760405162461bcd60e51b815260206004820152602760248201527f476f7665726e6f7253657474696e67733a20766f74696e6720706572696f6420604482015266746f6f206c6f7760c81b60648201526084015b60405180910390fd5b60055460408051918252602082018390527f7e3f7f0708a84de9203036abaa450dccc85ad5ff52f78c170f3edb55cf5e8828910160405180910390a1600555565b60065460408051918252602082018390527fccb45da8d5717e6c4544694297c4ba5cf151d455c9bb0ed4fc7a38411bc05461910160405180910390a1600655565b60648111156200033c5760405162461bcd60e51b815260206004820152604360248201527f476f7665726e6f72566f74657351756f72756d4672616374696f6e3a2071756f60448201527f72756d4e756d657261746f72206f7665722071756f72756d44656e6f6d696e616064820152623a37b960e91b608482015260a4016200022c565b60006200034862000498565b905080158015906200035a5750600954155b15620003d55760096000016040518060400160405280600063ffffffff1681526020016200039384620004c760201b620019c41760201c565b6001600160e01b0390811690915282546001810184556000938452602093849020835194909301519091166401000000000263ffffffff909316929092179101555b620003f08260096200053660201b62001a471790919060201c565b505060408051828152602081018490527f0553476bf02ef2726e8ce5ced78d63e26e602e4a2257b1f559418e24b4633997910160405180910390a15050565b600a54604080516001600160a01b03928316815291831660208301527f08f74ea46ef7894f65eabfb5e6e695de773a000b47c529ab559178069b226401910160405180910390a1600a80546001600160a01b0319166001600160a01b0392909216919091179055565b60095460009015620004c057620004bb60096200069260201b62001b721760201c565b905090565b5060085490565b60006001600160e01b03821115620005325760405162461bcd60e51b815260206004820152602760248201527f53616665436173743a2076616c756520646f65736e27742066697420696e20326044820152663234206269747360c81b60648201526084016200022c565b5090565b8154600090819081620005498662000692565b90506000821180156200058d575043866200056660018562000869565b815481106200057957620005796200088f565b60009182526020909120015463ffffffff16145b156200060157620005a985620004c760201b620019c41760201c565b86620005b760018562000869565b81548110620005ca57620005ca6200088f565b9060005260206000200160000160046101000a8154816001600160e01b0302191690836001600160e01b0316021790555062000689565b8560000160405180604001604052806200062643620006f560201b62001bce1760201c565b63ffffffff1681526020016200064788620004c760201b620019c41760201c565b6001600160e01b0390811690915282546001810184556000938452602093849020835194909301519091166401000000000263ffffffff909316929092179101555b95939450505050565b80546000908015620006e25782620006ac60018362000869565b81548110620006bf57620006bf6200088f565b60009182526020909120015464010000000090046001600160e01b0316620006e5565b60005b6001600160e01b03169392505050565b600063ffffffff821115620005325760405162461bcd60e51b815260206004820152602660248201527f53616665436173743a2076616c756520646f65736e27742066697420696e203360448201526532206269747360d01b60648201526084016200022c565b8280546200076a90620008a5565b90600052602060002090601f0160209004810192826200078e5760008555620007d9565b82601f10620007a957805160ff1916838001178555620007d9565b82800160010185558215620007d9579182015b82811115620007d9578251825591602001919060010190620007bc565b50620005329291505b80821115620005325760008155600101620007e2565b6001600160a01b03811681146200080e57600080fd5b50565b600080600080600060a086880312156200082a57600080fd5b85516200083781620007f8565b60208701519095506200084a81620007f8565b6040870151606088015160809098015196999198509695945092505050565b6000828210156200088a57634e487b7160e01b600052601160045260246000fd5b500390565b634e487b7160e01b600052603260045260246000fd5b600181811c90821680620008ba57607f821691505b60208210811415620008dc57634e487b7160e01b600052602260045260246000fd5b50919050565b60805160a05160c05160e0516101005161012051610140516144d36200094b600039600081816109ef015281816128460152612abe01526000612cad01526000612cfc01526000612cd701526000612c3001526000612c5a01526000612c8401526144d36000f3fe6080604052600436106102eb5760003560e01c8063938351b811610184578063c28bc2fa116100d6578063ea0217cf1161008a578063f23a6e6111610064578063f23a6e6114610978578063f8ce560a146109bd578063fc0c546a146109dd57600080fd5b8063ea0217cf14610918578063eb9019d414610938578063ece40cc11461095857600080fd5b8063d33219b4116100bb578063d33219b41461086c578063dd4e2ba51461089e578063deaaa7cc146108e457600080fd5b8063c28bc2fa1461082c578063c59057e41461084c57600080fd5b8063a890c91011610138578063bc197c8111610112578063bc197c811461079a578063bf8ca1aa146107df578063c01f9e371461080c57600080fd5b8063a890c91014610745578063ab58fb8e14610765578063b58131b01461078557600080fd5b80639a802a6d116101695780639a802a6d146106fa5780639f2f19421461071a578063a7713a701461073057600080fd5b8063938351b8146106b857806397c3d334146106e657600080fd5b80633bccf4fd1161023d57806356781388116101f157806370b0f660116101cb57806370b0f660146106585780637b3c71d3146106785780637d5e81e21461069857600080fd5b806356781388146105f85780635f398a141461061857806360c4247f1461063857600080fd5b806343859632116102225780634385963214610513578063544ffc9c1461055d57806354fd4d50146105b257600080fd5b80633bccf4fd146104c65780633e4f49e6146104e657600080fd5b8063150b7a021161029f5780632d63f693116102795780632d63f6931461045d5780632fe3e2611461047d5780633932abb1146104b157600080fd5b8063150b7a02146103cd578063160cbed71461042a5780632656227d1461044a57600080fd5b806303420181116102d0578063034201811461036b57806306f3f9e61461038b57806306fdde03146103ab57600080fd5b806301ffc9a71461031357806302a251a31461034857600080fd5b3661030e57306102f9610a11565b6001600160a01b03161461030c57600080fd5b005b600080fd5b34801561031f57600080fd5b5061033361032e366004613645565b610a2a565b60405190151581526020015b60405180910390f35b34801561035457600080fd5b5061035d610a3b565b60405190815260200161033f565b34801561037757600080fd5b5061035d610386366004613786565b610a46565b34801561039757600080fd5b5061030c6103a636600461382d565b610b3e565b3480156103b757600080fd5b506103c0610c02565b60405161033f91906138a2565b3480156103d957600080fd5b506104116103e83660046138ca565b7f150b7a0200000000000000000000000000000000000000000000000000000000949350505050565b6040516001600160e01b0319909116815260200161033f565b34801561043657600080fd5b5061035d610445366004613aa9565b610c94565b61035d610458366004613aa9565b610f37565b34801561046957600080fd5b5061035d61047836600461382d565b61105e565b34801561048957600080fd5b5061035d7fb3b3f3b703cd84ce352197dcff232b1b5d3cfb2025ce47cf04742d0651f1af8881565b3480156104bd57600080fd5b5061035d611097565b3480156104d257600080fd5b5061035d6104e1366004613b39565b6110a2565b3480156104f257600080fd5b5061050661050136600461382d565b611118565b60405161033f9190613b9d565b34801561051f57600080fd5b5061033361052e366004613bc5565b60008281526007602090815260408083206001600160a01b038516845260030190915290205460ff1692915050565b34801561056957600080fd5b5061059761057836600461382d565b6000908152600760205260409020805460018201546002909201549092565b6040805193845260208401929092529082015260600161033f565b3480156105be57600080fd5b5060408051808201909152600181527f310000000000000000000000000000000000000000000000000000000000000060208201526103c0565b34801561060457600080fd5b5061035d610613366004613bf5565b611123565b34801561062457600080fd5b5061035d610633366004613c21565b61114c565b34801561064457600080fd5b5061035d61065336600461382d565b611196565b34801561066457600080fd5b5061030c61067336600461382d565b61122c565b34801561068457600080fd5b5061035d610693366004613ca5565b6112e8565b3480156106a457600080fd5b5061035d6106b3366004613cff565b61133a565b3480156106c457600080fd5b506106d86106d336600461382d565b611398565b60405161033f929190613db4565b3480156106f257600080fd5b50606461035d565b34801561070657600080fd5b5061035d610715366004613dcd565b61143d565b34801561072657600080fd5b5061035d600c5481565b34801561073c57600080fd5b5061035d611454565b34801561075157600080fd5b5061030c610760366004613e26565b611470565b34801561077157600080fd5b5061035d61078036600461382d565b61152c565b34801561079157600080fd5b5061035d6115ee565b3480156107a657600080fd5b506104116107b5366004613e43565b7fbc197c810000000000000000000000000000000000000000000000000000000095945050505050565b3480156107eb57600080fd5b506107ff6107fa36600461382d565b6115f9565b60405161033f9190613ed7565b34801561081857600080fd5b5061035d61082736600461382d565b6116cf565b34801561083857600080fd5b5061030c610847366004613efc565b6116ff565b34801561085857600080fd5b5061035d610867366004613aa9565b6117fb565b34801561087857600080fd5b50600a546001600160a01b03165b6040516001600160a01b03909116815260200161033f565b3480156108aa57600080fd5b506040805180820190915260208082527f737570706f72743d627261766f2671756f72756d3d666f722c6162737461696e908201526103c0565b3480156108f057600080fd5b5061035d7f150214d74d59b7d1e90c73fc22ef3d991dd0a76b046543d4d80ab92d2a50328f81565b34801561092457600080fd5b5061030c61093336600461382d565b611835565b34801561094457600080fd5b5061035d610953366004613f40565b6118f1565b34801561096457600080fd5b5061030c61097336600461382d565b6118fd565b34801561098457600080fd5b50610411610993366004613f6c565b7ff23a6e610000000000000000000000000000000000000000000000000000000095945050505050565b3480156109c957600080fd5b5061035d6109d836600461382d565b6119b9565b3480156109e957600080fd5b506108867f000000000000000000000000000000000000000000000000000000000000000081565b6000610a25600a546001600160a01b031690565b905090565b6000610a3582611c4a565b92915050565b6000610a2560055490565b600080610aea610ae27fb3b3f3b703cd84ce352197dcff232b1b5d3cfb2025ce47cf04742d0651f1af888c8c8c8c604051610a82929190613fd5565b60405180910390208b80519060200120604051602001610ac7959493929190948552602085019390935260ff9190911660408401526060830152608082015260a00190565b60405160208183030381529060405280519060200120611c88565b868686611cf1565b9050610b308a828b8b8b8080601f0160208091040260200160405190810160405280939291908181526020018383808284376000920191909152508d9250611d0f915050565b9a9950505050505050505050565b610b46610a11565b6001600160a01b0316336001600160a01b031614610bab5760405162461bcd60e51b815260206004820152601860248201527f476f7665726e6f723a206f6e6c79476f7665726e616e6365000000000000000060448201526064015b60405180910390fd5b30610bb4610a11565b6001600160a01b031614610bf65760008036604051610bd4929190613fd5565b604051809103902090505b80610bea6002611e8c565b14610bf457610bdf565b505b610bff81611f3c565b50565b606060008054610c1190613fe5565b80601f0160208091040260200160405190810160405280929190818152602001828054610c3d90613fe5565b8015610c8a5780601f10610c5f57610100808354040283529160200191610c8a565b820191906000526020600020905b815481529060010190602001808311610c6d57829003601f168201915b5050505050905090565b600080610ca3868686866117fb565b90506004610cb082611118565b6007811115610cc157610cc1613b87565b14610d185760405162461bcd60e51b815260206004820152602160248201527f476f7665726e6f723a2070726f706f73616c206e6f74207375636365737366756044820152601b60fa1b6064820152608401610ba2565b600a54604080517ff27a0c9200000000000000000000000000000000000000000000000000000000815290516000926001600160a01b03169163f27a0c92916004808301926020929190829003018186803b158015610d7657600080fd5b505afa158015610d8a573d6000803e3d6000fd5b505050506040513d601f19601f82011682018060405250810190610dae9190614020565b600a546040517fb1c5f4270000000000000000000000000000000000000000000000000000000081529192506001600160a01b03169063b1c5f42790610e01908a908a908a906000908b90600401614102565b60206040518083038186803b158015610e1957600080fd5b505afa158015610e2d573d6000803e3d6000fd5b505050506040513d601f19601f82011682018060405250810190610e519190614020565b6000838152600b602052604080822092909255600a5491517f8f2a0bb00000000000000000000000000000000000000000000000000000000081526001600160a01b0390921691638f2a0bb091610eb5918b918b918b91908b908990600401614150565b600060405180830381600087803b158015610ecf57600080fd5b505af1158015610ee3573d6000803e3d6000fd5b505050507f9a2e42fd6722813d69113e7d0079d3d940171428df7373df9c7f7617cfda2892828242610f1591906141be565b6040805192835260208301919091520160405180910390a15095945050505050565b600080610f46868686866117fb565b90506000610f5382611118565b90506004816007811115610f6957610f69613b87565b1480610f8657506005816007811115610f8457610f84613b87565b145b610fdc5760405162461bcd60e51b815260206004820152602160248201527f476f7665726e6f723a2070726f706f73616c206e6f74207375636365737366756044820152601b60fa1b6064820152608401610ba2565b600082815260016020818152604092839020600201805460ff191690921790915590518381527f712ae1383f79ac853f8d882153778e0260ef8f03b504e2866e0593e04d2b291f910160405180910390a161103a82888888886120a3565b6110478288888888612145565b6110548288888888612152565b5095945050505050565b600081815260016020908152604080832081519283019091525467ffffffffffffffff16908190525b67ffffffffffffffff1692915050565b6000610a2560045490565b604080517f150214d74d59b7d1e90c73fc22ef3d991dd0a76b046543d4d80ab92d2a50328f602082015290810186905260ff8516606082015260009081906110f090610ae290608001610ac7565b905061110d8782886040518060200160405280600081525061218b565b979650505050505050565b6000610a35826121b7565b6000803390506111448482856040518060200160405280600081525061218b565b949350505050565b60008033905061110d87828888888080601f0160208091040260200160405190810160405280939291908181526020018383808284376000920191909152508a9250611d0f915050565b600954600090806111ab575050600854919050565b600060096111ba6001846141d6565b815481106111ca576111ca6141ed565b60009182526020918290206040805180820190915291015463ffffffff81168083526401000000009091046001600160e01b0316928201929092529150841061122157602001516001600160e01b03169392505050565b611144600985612351565b611234610a11565b6001600160a01b0316336001600160a01b0316146112945760405162461bcd60e51b815260206004820152601860248201527f476f7665726e6f723a206f6e6c79476f7665726e616e636500000000000000006044820152606401610ba2565b3061129d610a11565b6001600160a01b0316146112df57600080366040516112bd929190613fd5565b604051809103902090505b806112d36002611e8c565b146112dd576112c8565b505b610bff81612460565b60008033905061133086828787878080601f01602080910402602001604051908101604052809392919081815260200183838082843760009201919091525061218b92505050565b9695505050505050565b600080611349868686866124a1565b600c8054919250600061135b83614203565b9091555050600c546000908152600d602090815260409091208281558451909161138c9160018401918701906135b5565b50909695505050505050565b600d60205260009081526040902080546001820180549192916113ba90613fe5565b80601f01602080910402602001604051908101604052809291908181526020018280546113e690613fe5565b80156114335780601f1061140857610100808354040283529160200191611433565b820191906000526020600020905b81548152906001019060200180831161141657829003601f168201915b5050505050905082565b600061144a848484612804565b90505b9392505050565b6009546000901561146957610a256009611b72565b5060085490565b611478610a11565b6001600160a01b0316336001600160a01b0316146114d85760405162461bcd60e51b815260206004820152601860248201527f476f7665726e6f723a206f6e6c79476f7665726e616e636500000000000000006044820152606401610ba2565b306114e1610a11565b6001600160a01b0316146115235760008036604051611501929190613fd5565b604051809103902090505b806115176002611e8c565b146115215761150c565b505b610bff816128c2565b600a546000828152600b60205260408082205490517fd45c44350000000000000000000000000000000000000000000000000000000081526004810191909152909182916001600160a01b039091169063d45c44359060240160206040518083038186803b15801561159d57600080fd5b505afa1580156115b1573d6000803e3d6000fd5b505050506040513d601f19601f820116820180604052508101906115d59190614020565b9050806001146115e5578061144d565b60009392505050565b6000610a2560065490565b604080518082019091526000815260606020820152600d60008381526020019081526020016000206040518060400160405290816000820154815260200160018201805461164690613fe5565b80601f016020809104026020016040519081016040528092919081815260200182805461167290613fe5565b80156116bf5780601f10611694576101008083540402835291602001916116bf565b820191906000526020600020905b8154815290600101906020018083116116a257829003601f168201915b5050505050815250509050919050565b600081815260016020818152604080842081519283019091529091015467ffffffffffffffff1690819052611087565b611707610a11565b6001600160a01b0316336001600160a01b0316146117675760405162461bcd60e51b815260206004820152601860248201527f476f7665726e6f723a206f6e6c79476f7665726e616e636500000000000000006044820152606401610ba2565b30611770610a11565b6001600160a01b0316146117b25760008036604051611790929190613fd5565b604051809103902090505b806117a66002611e8c565b146117b05761179b565b505b6117f48483838080601f016020809104026020016040519081016040528093929190818152602001838380828437600092019190915250889250612943915050565b5050505050565b600084848484604051602001611814949392919061421e565b60408051601f19818403018152919052805160209091012095945050505050565b61183d610a11565b6001600160a01b0316336001600160a01b03161461189d5760405162461bcd60e51b815260206004820152601860248201527f476f7665726e6f723a206f6e6c79476f7665726e616e636500000000000000006044820152606401610ba2565b306118a6610a11565b6001600160a01b0316146118e857600080366040516118c6929190613fd5565b604051809103902090505b806118dc6002611e8c565b146118e6576118d1565b505b610bff81612969565b600061144d8383612a20565b611905610a11565b6001600160a01b0316336001600160a01b0316146119655760405162461bcd60e51b815260206004820152601860248201527f476f7665726e6f723a206f6e6c79476f7665726e616e636500000000000000006044820152606401610ba2565b3061196e610a11565b6001600160a01b0316146119b0576000803660405161198e929190613fd5565b604051809103902090505b806119a46002611e8c565b146119ae57611999565b505b610bff81612a41565b6000610a3582612a82565b60006001600160e01b03821115611a435760405162461bcd60e51b815260206004820152602760248201527f53616665436173743a2076616c756520646f65736e27742066697420696e203260448201527f32342062697473000000000000000000000000000000000000000000000000006064820152608401610ba2565b5090565b8154600090819081611a5886611b72565b9050600082118015611a9657504386611a726001856141d6565b81548110611a8257611a826141ed565b60009182526020909120015463ffffffff16145b15611af657611aa4856119c4565b86611ab06001856141d6565b81548110611ac057611ac06141ed565b9060005260206000200160000160046101000a8154816001600160e01b0302191690836001600160e01b03160217905550611b64565b856000016040518060400160405280611b0e43611bce565b63ffffffff168152602001611b22886119c4565b6001600160e01b0390811690915282546001810184556000938452602093849020835194909301519091166401000000000263ffffffff909316929092179101555b9250839150505b9250929050565b80546000908015611bbb5782611b896001836141d6565b81548110611b9957611b996141ed565b60009182526020909120015464010000000090046001600160e01b0316611bbe565b60005b6001600160e01b03169392505050565b600063ffffffff821115611a435760405162461bcd60e51b815260206004820152602660248201527f53616665436173743a2076616c756520646f65736e27742066697420696e203360448201527f32206269747300000000000000000000000000000000000000000000000000006064820152608401610ba2565b60006001600160e01b031982167f6e665ced000000000000000000000000000000000000000000000000000000001480610a355750610a3582612b54565b6000610a35611c95612c23565b836040517f19010000000000000000000000000000000000000000000000000000000000006020820152602281018390526042810182905260009060620160405160208183030381529060405280519060200120905092915050565b6000806000611d0287878787612d4a565b9150915061105481612e37565b6000858152600160208190526040822090611d2988611118565b6007811115611d3a57611d3a613b87565b14611dad5760405162461bcd60e51b815260206004820152602360248201527f476f7665726e6f723a20766f7465206e6f742063757272656e746c792061637460448201527f69766500000000000000000000000000000000000000000000000000000000006064820152608401610ba2565b6040805160208101909152815467ffffffffffffffff1690819052600090611dd790889086612804565b9050611de68888888488612ff2565b8351611e3857866001600160a01b03167fb8e138887d0aa13bab447e82de9d5c1777041ecd21ca36ba824ff1e6c07ddda489888489604051611e2b9493929190614269565b60405180910390a261110d565b866001600160a01b03167fe2babfbac5889a709b63bb7f598b324e08bc5a4fb9ec647fb3cbc9ec07eb87128988848989604051611e79959493929190614291565b60405180910390a2979650505050505050565b6000611ea78254600f81810b600160801b909204900b131590565b15611ede576040517f3db2a12a00000000000000000000000000000000000000000000000000000000815260040160405180910390fd5b508054600f0b6000818152600180840160205260408220805492905583547fffffffffffffffffffffffffffffffff000000000000000000000000000000001692016fffffffffffffffffffffffffffffffff169190911790915590565b6064811115611fd95760405162461bcd60e51b815260206004820152604360248201527f476f7665726e6f72566f74657351756f72756d4672616374696f6e3a2071756f60448201527f72756d4e756d657261746f72206f7665722071756f72756d44656e6f6d696e6160648201527f746f720000000000000000000000000000000000000000000000000000000000608482015260a401610ba2565b6000611fe3611454565b90508015801590611ff45750600954155b1561205957604080518082019091526000815260099060208101612017846119c4565b6001600160e01b0390811690915282546001810184556000938452602093849020835194909301519091166401000000000263ffffffff909316929092179101555b612064600983611a47565b505060408051828152602081018490527f0553476bf02ef2726e8ce5ced78d63e26e602e4a2257b1f559418e24b4633997910160405180910390a15050565b306120ac610a11565b6001600160a01b0316146117f45760005b845181101561213d57306001600160a01b03168582815181106120e2576120e26141ed565b60200260200101516001600160a01b0316141561212d5761212d83828151811061210e5761210e6141ed565b602002602001015180519060200120600261318f90919063ffffffff16565b61213681614203565b90506120bd565b505050505050565b6117f485858585856131d4565b3061215b610a11565b6001600160a01b0316146117f457600254600f81810b600160801b909204900b13156117f45760006002556117f4565b60006121ae858585856121a960408051602081019091526000815290565b611d0f565b95945050505050565b6000806121c383613261565b905060048160078111156121d9576121d9613b87565b146121e45792915050565b6000838152600b6020526040902054806121ff575092915050565b600a546040517f2ab0f529000000000000000000000000000000000000000000000000000000008152600481018390526001600160a01b0390911690632ab0f5299060240160206040518083038186803b15801561225c57600080fd5b505afa158015612270573d6000803e3d6000fd5b505050506040513d601f19601f8201168201806040525081019061229491906142d7565b156122a3575060079392505050565b600a546040517f584b153e000000000000000000000000000000000000000000000000000000008152600481018390526001600160a01b039091169063584b153e9060240160206040518083038186803b15801561230057600080fd5b505afa158015612314573d6000803e3d6000fd5b505050506040513d601f19601f8201168201806040525081019061233891906142d7565b15612347575060059392505050565b5060029392505050565b60004382106123a25760405162461bcd60e51b815260206004820181905260248201527f436865636b706f696e74733a20626c6f636b206e6f7420796574206d696e65646044820152606401610ba2565b825460005b818110156124075760006123bb828461336d565b9050848660000182815481106123d3576123d36141ed565b60009182526020909120015463ffffffff1611156123f357809250612401565b6123fe8160016141be565b91505b506123a7565b811561244b57846124196001846141d6565b81548110612429576124296141ed565b60009182526020909120015464010000000090046001600160e01b031661244e565b60005b6001600160e01b031695945050505050565b60045460408051918252602082018390527fc565b045403dc03c2eea82b81a0465edad9e2e7fc4d97e11421c209da93d7a93910160405180910390a1600455565b60006124ab6115ee565b6124ba336109536001436141d6565b101561252e5760405162461bcd60e51b815260206004820152603160248201527f476f7665726e6f723a2070726f706f73657220766f7465732062656c6f77207060448201527f726f706f73616c207468726573686f6c640000000000000000000000000000006064820152608401610ba2565b600061254386868686805190602001206117fb565b905084518651146125a05760405162461bcd60e51b815260206004820152602160248201527f476f7665726e6f723a20696e76616c69642070726f706f73616c206c656e67746044820152600d60fb1b6064820152608401610ba2565b83518651146125fb5760405162461bcd60e51b815260206004820152602160248201527f476f7665726e6f723a20696e76616c69642070726f706f73616c206c656e67746044820152600d60fb1b6064820152608401610ba2565b600086511161264c5760405162461bcd60e51b815260206004820152601860248201527f476f7665726e6f723a20656d7074792070726f706f73616c00000000000000006044820152606401610ba2565b6000818152600160209081526040918290208251918201909252815467ffffffffffffffff1690819052156126e95760405162461bcd60e51b815260206004820152602160248201527f476f7665726e6f723a2070726f706f73616c20616c726561647920657869737460448201527f73000000000000000000000000000000000000000000000000000000000000006064820152608401610ba2565b60006126fb6126f6611097565b613388565b61270443613388565b61270e91906142f9565b9050600061271d6126f6610a3b565b61272790836142f9565b835467ffffffffffffffff191667ffffffffffffffff8416178455905060018301805467ffffffffffffffff191667ffffffffffffffff83161790557f7d84a6263ae0d98d3329bd7b46bb4e8d6f98cd35a7adb45c274c8b7fd5ebd5e084338b8b8d5167ffffffffffffffff8111156127a2576127a26136c7565b6040519080825280602002602001820160405280156127d557816020015b60608152602001906001900390816127c05790505b508c88888e6040516127ef99989796959493929190614325565b60405180910390a15091979650505050505050565b6040517f3a46b1a80000000000000000000000000000000000000000000000000000000081526001600160a01b038481166004830152602482018490526000917f000000000000000000000000000000000000000000000000000000000000000090911690633a46b1a89060440160206040518083038186803b15801561288a57600080fd5b505afa15801561289e573d6000803e3d6000fd5b505050506040513d601f19601f8201168201806040525081019061144a9190614020565b600a54604080516001600160a01b03928316815291831660208301527f08f74ea46ef7894f65eabfb5e6e695de773a000b47c529ab559178069b226401910160405180910390a1600a80547fffffffffffffffffffffffff0000000000000000000000000000000000000000166001600160a01b0392909216919091179055565b606061144a84848460405180606001604052806029815260200161447560299139613408565b600081116129df5760405162461bcd60e51b815260206004820152602760248201527f476f7665726e6f7253657474696e67733a20766f74696e6720706572696f642060448201527f746f6f206c6f77000000000000000000000000000000000000000000000000006064820152608401610ba2565b60055460408051918252602082018390527f7e3f7f0708a84de9203036abaa450dccc85ad5ff52f78c170f3edb55cf5e8828910160405180910390a1600555565b600061144d8383612a3c60408051602081019091526000815290565b612804565b60065460408051918252602082018390527fccb45da8d5717e6c4544694297c4ba5cf151d455c9bb0ed4fc7a38411bc05461910160405180910390a1600655565b60006064612a8f83611196565b6040517f8e539e8c000000000000000000000000000000000000000000000000000000008152600481018590527f00000000000000000000000000000000000000000000000000000000000000006001600160a01b031690638e539e8c9060240160206040518083038186803b158015612b0857600080fd5b505afa158015612b1c573d6000803e3d6000fd5b505050506040513d601f19601f82011682018060405250810190612b409190614020565b612b4a9190614417565b610a359190614436565b60006001600160e01b031982167fbf26d897000000000000000000000000000000000000000000000000000000001480612bb757506001600160e01b031982167f79dd796f00000000000000000000000000000000000000000000000000000000145b80612beb57506001600160e01b031982167f4e2312e000000000000000000000000000000000000000000000000000000000145b80610a3557507f01ffc9a7000000000000000000000000000000000000000000000000000000006001600160e01b0319831614610a35565b6000306001600160a01b037f000000000000000000000000000000000000000000000000000000000000000016148015612c7c57507f000000000000000000000000000000000000000000000000000000000000000046145b15612ca657507f000000000000000000000000000000000000000000000000000000000000000090565b50604080517f00000000000000000000000000000000000000000000000000000000000000006020808301919091527f0000000000000000000000000000000000000000000000000000000000000000828401527f000000000000000000000000000000000000000000000000000000000000000060608301524660808301523060a0808401919091528351808403909101815260c0909201909252805191012090565b6000807f7fffffffffffffffffffffffffffffff5d576e7357a4501ddfe92f46681b20a0831115612d815750600090506003612e2e565b8460ff16601b14158015612d9957508460ff16601c14155b15612daa5750600090506004612e2e565b6040805160008082526020820180845289905260ff881692820192909252606081018690526080810185905260019060a0016020604051602081039080840390855afa158015612dfe573d6000803e3d6000fd5b5050604051601f1901519150506001600160a01b038116612e2757600060019250925050612e2e565b9150600090505b94509492505050565b6000816004811115612e4b57612e4b613b87565b1415612e545750565b6001816004811115612e6857612e68613b87565b1415612eb65760405162461bcd60e51b815260206004820152601860248201527f45434453413a20696e76616c6964207369676e617475726500000000000000006044820152606401610ba2565b6002816004811115612eca57612eca613b87565b1415612f185760405162461bcd60e51b815260206004820152601f60248201527f45434453413a20696e76616c6964207369676e6174757265206c656e677468006044820152606401610ba2565b6003816004811115612f2c57612f2c613b87565b1415612f855760405162461bcd60e51b815260206004820152602260248201527f45434453413a20696e76616c6964207369676e6174757265202773272076616c604482015261756560f01b6064820152608401610ba2565b6004816004811115612f9957612f99613b87565b1415610bff5760405162461bcd60e51b815260206004820152602260248201527f45434453413a20696e76616c6964207369676e6174757265202776272076616c604482015261756560f01b6064820152608401610ba2565b60008581526007602090815260408083206001600160a01b0388168452600381019092529091205460ff16156130905760405162461bcd60e51b815260206004820152602760248201527f476f7665726e6f72566f74696e6753696d706c653a20766f746520616c72656160448201527f64792063617374000000000000000000000000000000000000000000000000006064820152608401610ba2565b6001600160a01b03851660009081526003820160205260408120805460ff1916600117905560ff168460ff1614156130e157828160000160008282546130d691906141be565b9091555061213d9050565b60ff84166001141561310157828160010160008282546130d691906141be565b60ff84166002141561312157828160020160008282546130d691906141be565b60405162461bcd60e51b815260206004820152603560248201527f476f7665726e6f72566f74696e6753696d706c653a20696e76616c696420766160448201527f6c756520666f7220656e756d20566f74655479706500000000000000000000006064820152608401610ba2565b8154600160801b90819004600f0b6000818152600180860160205260409091209390935583546fffffffffffffffffffffffffffffffff908116939091011602179055565b600a546040517fe38335e50000000000000000000000000000000000000000000000000000000081526001600160a01b039091169063e38335e5903490613228908890889088906000908990600401614102565b6000604051808303818588803b15801561324157600080fd5b505af1158015613255573d6000803e3d6000fd5b50505050505050505050565b6000818152600160205260408120600281015460ff16156132855750600792915050565b6002810154610100900460ff16156132a05750600292915050565b60006132ab8461105e565b9050806132fa5760405162461bcd60e51b815260206004820152601d60248201527f476f7665726e6f723a20756e6b6e6f776e2070726f706f73616c2069640000006044820152606401610ba2565b43811061330b575060009392505050565b6000613316856116cf565b905043811061332a57506001949350505050565b61333385613545565b8015613352575060008581526007602052604090208054600190910154115b1561336257506004949350505050565b506003949350505050565b600061337c6002848418614436565b61144d908484166141be565b600067ffffffffffffffff821115611a435760405162461bcd60e51b815260206004820152602660248201527f53616665436173743a2076616c756520646f65736e27742066697420696e203660448201527f34206269747300000000000000000000000000000000000000000000000000006064820152608401610ba2565b6060824710156134805760405162461bcd60e51b815260206004820152602660248201527f416464726573733a20696e73756666696369656e742062616c616e636520666f60448201527f722063616c6c00000000000000000000000000000000000000000000000000006064820152608401610ba2565b6001600160a01b0385163b6134d75760405162461bcd60e51b815260206004820152601d60248201527f416464726573733a2063616c6c20746f206e6f6e2d636f6e74726163740000006044820152606401610ba2565b600080866001600160a01b031685876040516134f39190614458565b60006040518083038185875af1925050503d8060008114613530576040519150601f19603f3d011682016040523d82523d6000602084013e613535565b606091505b509150915061110d82828661357c565b60008181526007602052604081206002810154600182015461356791906141be565b6135736109d88561105e565b11159392505050565b6060831561358b57508161144d565b82511561359b5782518084602001fd5b8160405162461bcd60e51b8152600401610ba291906138a2565b8280546135c190613fe5565b90600052602060002090601f0160209004810192826135e35760008555613629565b82601f106135fc57805160ff1916838001178555613629565b82800160010185558215613629579182015b8281111561362957825182559160200191906001019061360e565b50611a439291505b80821115611a435760008155600101613631565b60006020828403121561365757600080fd5b81356001600160e01b03198116811461144d57600080fd5b803560ff8116811461368057600080fd5b919050565b60008083601f84011261369757600080fd5b50813567ffffffffffffffff8111156136af57600080fd5b602083019150836020828501011115611b6b57600080fd5b634e487b7160e01b600052604160045260246000fd5b604051601f8201601f1916810167ffffffffffffffff81118282101715613706576137066136c7565b604052919050565b600067ffffffffffffffff831115613728576137286136c7565b61373b601f8401601f19166020016136dd565b905082815283838301111561374f57600080fd5b828260208301376000602084830101529392505050565b600082601f83011261377757600080fd5b61144d8383356020850161370e565b60008060008060008060008060e0898b0312156137a257600080fd5b883597506137b260208a0161366f565b9650604089013567ffffffffffffffff808211156137cf57600080fd5b6137db8c838d01613685565b909850965060608b01359150808211156137f457600080fd5b506138018b828c01613766565b94505061381060808a0161366f565b925060a0890135915060c089013590509295985092959890939650565b60006020828403121561383f57600080fd5b5035919050565b60005b83811015613861578181015183820152602001613849565b83811115613870576000848401525b50505050565b6000815180845261388e816020860160208601613846565b601f01601f19169290920160200192915050565b60208152600061144d6020830184613876565b6001600160a01b0381168114610bff57600080fd5b600080600080608085870312156138e057600080fd5b84356138eb816138b5565b935060208501356138fb816138b5565b925060408501359150606085013567ffffffffffffffff81111561391e57600080fd5b61392a87828801613766565b91505092959194509250565b600067ffffffffffffffff821115613950576139506136c7565b5060051b60200190565b600082601f83011261396b57600080fd5b8135602061398061397b83613936565b6136dd565b82815260059290921b8401810191818101908684111561399f57600080fd5b8286015b848110156139c35780356139b6816138b5565b83529183019183016139a3565b509695505050505050565b600082601f8301126139df57600080fd5b813560206139ef61397b83613936565b82815260059290921b84018101918181019086841115613a0e57600080fd5b8286015b848110156139c35780358352918301918301613a12565b600082601f830112613a3a57600080fd5b81356020613a4a61397b83613936565b82815260059290921b84018101918181019086841115613a6957600080fd5b8286015b848110156139c357803567ffffffffffffffff811115613a8d5760008081fd5b613a9b8986838b0101613766565b845250918301918301613a6d565b60008060008060808587031215613abf57600080fd5b843567ffffffffffffffff80821115613ad757600080fd5b613ae38883890161395a565b95506020870135915080821115613af957600080fd5b613b05888389016139ce565b94506040870135915080821115613b1b57600080fd5b50613b2887828801613a29565b949793965093946060013593505050565b600080600080600060a08688031215613b5157600080fd5b85359450613b616020870161366f565b9350613b6f6040870161366f565b94979396509394606081013594506080013592915050565b634e487b7160e01b600052602160045260246000fd5b6020810160088310613bbf57634e487b7160e01b600052602160045260246000fd5b91905290565b60008060408385031215613bd857600080fd5b823591506020830135613bea816138b5565b809150509250929050565b60008060408385031215613c0857600080fd5b82359150613c186020840161366f565b90509250929050565b600080600080600060808688031215613c3957600080fd5b85359450613c496020870161366f565b9350604086013567ffffffffffffffff80821115613c6657600080fd5b613c7289838a01613685565b90955093506060880135915080821115613c8b57600080fd5b50613c9888828901613766565b9150509295509295909350565b60008060008060608587031215613cbb57600080fd5b84359350613ccb6020860161366f565b9250604085013567ffffffffffffffff811115613ce757600080fd5b613cf387828801613685565b95989497509550505050565b60008060008060808587031215613d1557600080fd5b843567ffffffffffffffff80821115613d2d57600080fd5b613d398883890161395a565b95506020870135915080821115613d4f57600080fd5b613d5b888389016139ce565b94506040870135915080821115613d7157600080fd5b613d7d88838901613a29565b93506060870135915080821115613d9357600080fd5b508501601f81018713613da557600080fd5b61392a8782356020840161370e565b82815260406020820152600061144a6040830184613876565b600080600060608486031215613de257600080fd5b8335613ded816138b5565b925060208401359150604084013567ffffffffffffffff811115613e1057600080fd5b613e1c86828701613766565b9150509250925092565b600060208284031215613e3857600080fd5b813561144d816138b5565b600080600080600060a08688031215613e5b57600080fd5b8535613e66816138b5565b94506020860135613e76816138b5565b9350604086013567ffffffffffffffff80821115613e9357600080fd5b613e9f89838a016139ce565b94506060880135915080821115613eb557600080fd5b613ec189838a016139ce565b93506080880135915080821115613c8b57600080fd5b6020815281516020820152600060208301516040808401526111446060840182613876565b60008060008060608587031215613f1257600080fd5b8435613f1d816138b5565b935060208501359250604085013567ffffffffffffffff811115613ce757600080fd5b60008060408385031215613f5357600080fd5b8235613f5e816138b5565b946020939093013593505050565b600080600080600060a08688031215613f8457600080fd5b8535613f8f816138b5565b94506020860135613f9f816138b5565b93506040860135925060608601359150608086013567ffffffffffffffff811115613fc957600080fd5b613c9888828901613766565b8183823760009101908152919050565b600181811c90821680613ff957607f821691505b6020821081141561401a57634e487b7160e01b600052602260045260246000fd5b50919050565b60006020828403121561403257600080fd5b5051919050565b600081518084526020808501945080840160005b838110156140725781516001600160a01b03168752958201959082019060010161404d565b509495945050505050565b600081518084526020808501945080840160005b8381101561407257815187529582019590820190600101614091565b600081518084526020808501808196508360051b8101915082860160005b858110156140f55782840389526140e3848351613876565b988501989350908401906001016140cb565b5091979650505050505050565b60a08152600061411560a0830188614039565b8281036020840152614127818861407d565b9050828103604084015261413b81876140ad565b60608401959095525050608001529392505050565b60c08152600061416360c0830189614039565b8281036020840152614175818961407d565b9050828103604084015261418981886140ad565b60608401969096525050608081019290925260a0909101529392505050565b634e487b7160e01b600052601160045260246000fd5b600082198211156141d1576141d16141a8565b500190565b6000828210156141e8576141e86141a8565b500390565b634e487b7160e01b600052603260045260246000fd5b6000600019821415614217576142176141a8565b5060010190565b6080815260006142316080830187614039565b8281036020840152614243818761407d565b9050828103604084015261425781866140ad565b91505082606083015295945050505050565b84815260ff841660208201528260408201526080606082015260006113306080830184613876565b85815260ff8516602082015283604082015260a0606082015260006142b960a0830185613876565b82810360808401526142cb8185613876565b98975050505050505050565b6000602082840312156142e957600080fd5b8151801515811461144d57600080fd5b600067ffffffffffffffff80831681851680830382111561431c5761431c6141a8565b01949350505050565b60006101208b835260206001600160a01b038c168185015281604085015261434f8285018c614039565b91508382036060850152614363828b61407d565b915083820360808501528189518084528284019150828160051b850101838c0160005b838110156143b457601f198784030185526143a2838351613876565b94860194925090850190600101614386565b505086810360a08801526143c8818c6140ad565b9450505050506143e460c084018767ffffffffffffffff169052565b67ffffffffffffffff851660e08401528281036101008401526144078185613876565b9c9b505050505050505050505050565b6000816000190483118215151615614431576144316141a8565b500290565b60008261445357634e487b7160e01b600052601260045260246000fd5b500490565b6000825161446a818460208701613846565b919091019291505056fe416464726573733a206c6f772d6c6576656c2063616c6c20776974682076616c7565206661696c6564a2646970667358221220d2b0429702c967cd7d096801dd1d9826da2620267f5f7d6075550907d87b1e8a64736f6c63430008090033",
  "linkReferences": {},
  "deployedLinkReferences": {}
}